:200000000C9494010C94BC010C94BC010C94BC010C94BC010C94BC010C947E1E0C94BC0141
:200020000C94BC010C94BC010C94BC010C94BC010C94BC010C94BC010C94BC010C94BC01D8
:200040000C94151D0C94BC010C94BC010C94BC010C94BC010C94BC010C94BC010C94BC0143
:200060000C945F1D0C94BC0107634236B79BD8A71A39685618AEBAAB558C1D3CB7CC5763A1
:20008000BD6DEDFD753EF6177231BF000000803F08000000BE922449123EABAAAA2ABECDA2
:2000A000CCCC4C3E00000080BEABAAAAAA3E00000000BF000000803F0000000000084178BA
:2000C000D3BB4387D1133D190E3CC3BD4282AD2B3E68EC8276BED98FE1A93E4C80EFFFBE38
:2000E00001C4FF7F3F00000000000000000000005F0000000007000700147F147F14242A89
:200100007F2A122313086462364955225000050300001C2241000041221C0000082A1C2A5C
:200120000808083E0808A0600000000808080808606000000020100804023E5149453E00D8
:20014000427F4000625149494622414949361814127F1027454545393C4A49493001710929
:2001600005033649494936064949291E003636000000AC6C000008142241001414141414EA
:2001800041221408000201510906324979413E7E0909097E7F494949363E414141227F4180
:2001A00041221C7F494949417F090909013E414151727F0808087F417F4100002040413F10
:2001C000017F081422417F404040407F020C027F7F0408107F3E4141413E7F090909063E5C
:2001E0004151215E7F09192946264949493201017F01013F4040403F1F2040201F3F403875
:20020000403F6314081463030478040361514945437F41410000020408102041417F000020
:2002200004020102048080808080010204000020545454787F4844443838444428003844AB
:2002400044487F3854545418087E09020018A4A4A47C7F08040478007D00000080847D0031
:20026000007F10284400417F4000007C041804787C08047C003844443800FC2424180018FF
:200280002424FC00007C0804004854542400047F4400003C40407C001C2040201C3C40301B
:2002A000403C44281028441CA0A07C004464544C440836410000007F0000004136080000F9
:2002C0000201010201020505020000000008000201000003040700000000000000000A0BDB
:2002E0000C0D0E0F00010203040500000000250028002B0000000000240027002A000404C4
:20030000040404040404020202020202030303030303010204081020408001020408102069
:200320000102040810208F1E11241FBECFEFD8E0DEBFCDBF25E0A6E4B1E001C01D92A231BD
:20034000B207E1F711E0A0E0B1E0E4E3F8E502C005900D92A634B107D9F711E0C4E9D1E0BF
:2003600004C02197FE010E945E2AC339D107C9F70E94151F0C94182C0C94000008950895B0
:2003800090E0FC01EE5EFC4F249182509D4FFC018491882399F090E0880F991FFC01EC50A8
:2003A000FD4FA591B491FC01E651FD4F859194918FB7F894EC91E22BEC938FBF08959091D4
:2003C0009102809190022FEF3FEF981748F4E92FF0E0E35BFD4F208130E09F5F90939102D9
:2003E000C901089590919102809190022FEF3FEF981748F4E92FF0E0E35BFD4F208130E0E5
:200400009F5F90939102C901089529E033E086E0F90194E51186915036969111FBCF81504B
:200420002F5F3F4F8111F4CF10920A0510920B050895AF92BF92CF92DF92EF92FF920F9333
:200440001F93CF93DF936C017B018B01040F151FEB015E01AE18BF08C017D10759F0699190
:20046000D601ED91FC910190F081E02DC6010995892B79F7C501DF91CF911F910F91FF908D
:20048000EF90DF90CF90BF90AF90089590E0FC01E653FD4F2491FC01EE5EFC4F3491FC01E7
:2004A000E250FD4FE491EE23C9F0222339F0233001F1A8F4213019F1223029F1F0E0EE0F9C
:2004C000FF1FE651FD4FA591B4918FB7F894EC91611126C030953E233C938FBF0895273022
:2004E000A9F02830C9F0243049F7809180008F7D03C0809180008F7780938000DFCF84B54D
:200500008F7784BDDBCF84B58F7DFBCF8091B0008F778093B000D2CF8091B0008F7DF9CF1B
:200520003E2BDACF682F8091A2020E9446028091BA029091BB028230910538F0880F991F09
:20054000880F991F05970197F1F7089581E00C9492022091A0023091A1024091A2025091F1
:20056000A3022417350721F0682F822F0C94460208953FB7F8948091A2019091A301A09155
:20058000A401B091A50126B5A89B05C02F3F19F00196A11DB11D3FBFBA2FA92F982F88271D
:2005A000BC01CD01620F711D811D911D42E0660F771F881F991F4A95D1F708958F929F9243
:2005C000AF92BF92CF92DF92EF92FF924B015C010E94B9026B017C010E94B9026C197D094E
:2005E0008E099F09683E734081059105A8F321E0821A9108A108B10888EEC80E83E0D81E6F
:20060000E11CF11C81149104A104B10429F7FF90EF90DF90CF90BF90AF909F908F900895D7
:200620002FB7F89460919E0170919F018091A0019091A1012FBF089520917A01260F33275C
:20064000331F21323105ECF420914702FC0190E080E0243069F082E00895A0917A0121910E
:20066000AC01465A5E4FA40FB52FB11D2C930196861798F380917A01680F60937A0180E0CC
:20068000089581E008951092470281E0809346021092410261E082E10E94460261E083E100
:2006A0000E944602E9EBF0E080818E7F808380818D7F808388E48093B80085E48093BC001C
:2006C0000895CF93DF9391E0909359018823B9F0C091B800D091BA008091BC008A7B80935E
:2006E000BC0060E082E10E94460260E083E10E9446020E944303D093BA00C093B800DF91A3
:20070000CF910895CF92DF92EF92FF920F931F93CF93DF93D0918E0281E0D13208F09CC027
:20072000C09120020E94B9026B017C018091470281116CC082E08093470281E0809346026E
:200740008FEF8093450210924402D0934302A0E0B2E0E1E2F2E080E0D8138DC0109242020C
:2007600080914202CC0FC82BC093420280914102813009F084C0109241020E94B9026B01CF
:200780007C01809142028093BB008091490290914A02A0914B02B0914C02892B8A2B8B2BC4
:2007A000A1F00E94B9020091490210914A0220914B0230914C026C197D098E099F0906170E
:2007C00017072807390708F442C08091BC0083FDD8CF85EC8093BC000E94B9026B017C0114
:2007E00080914702823009F44CC0809145028F3F09F469C080914502803209F466C080915A
:200800004502803309F463C084E026C08091490290914A02A0914B02B0914C02892B8A2B35
:200820008B2B09F483CF0E94B9020091490210914A0220914B0230914C026C197D098E09DE
:200840009F09061717072807390708F06FCF809148020E94610385E010928F0210928E02E5
:200860001092FF01DF91CF911F910F91FF90EF90DF90CF9008959D9191938F5F6DCF85EE4E
:20088000A9CF8091490290914A02A0914B02B0914C02892B8A2B8B2B09F4A2CF0E94B90220
:2008A0000091490210914A0220914B0230914C026C197D098E099F0906171707280739076E
:2008C00008F08ECFC4CF80E0C7CF82E0C5CF83E0C3CF0895E091910280919002E81730F4E8
:2008E000F0E0E35BFD4F808190E008958FEF9FEF08958091900290919102891B990B0895AB
:20090000CF92DF92EF92FF920F931F93CF93DF937C01CB018A012091FF01222389F0EB019C
:200920006B01C40ED51ECC15DD0569F06991D701ED91FC910190F081E02DC7010995F3CF56
:20094000642F0E941C03C801DF91CF911F910F91FF90EF90DF90CF900895CF93DF931F925C
:20096000CDB7DEB769832091FF012223F9F020918E02203258F021E030E0FC01338322834F
:2009800090E080E00F90DF91CF91089580918F02E82FF0E0E050FE4F998190838F5F809347
:2009A0008F0280938E0281E090E0ECCF61E0CE0101960E941C03F7CFCF93C62F9091F802D7
:2009C00021E02093FF019093200210928F0210928E02682F82E992E00E94AD046C2F82E9EC
:2009E00092E00E94AD040E94820365E070E080E090E0CF910C94DE026435D8F44033C8F432
:200A0000242F26952695269536E0639F800D911D1124FC01E20FF11D88EF289F400D11240E
:200A200021E030E001C0220F4A95EAF78185822B8187089546E061E589E093E00E94FC04B1
:200A400047E06BE489E093E00E94FC0447E062E589E093E00E94FC0448E06AE489E093E064
:200A60000E94FC0448E06DE489E093E00E94FC0448E060E589E093E00E94FC0448E063E582
:200A800089E093E00E94FC0449E06AE489E093E00E94FC0449E06CE489E093E00E94FC04EC
:200AA00049E061E589E093E00E94FC0449E063E589E093E00E94FC044AE06AE489E093E006
:200AC0000E94FC044AE06CE489E093E00E94FC044AE06EE489E093E00E94FC044AE06FE405
:200AE00089E093E00E94FC044AE061E589E093E00E94FC044AE063E589E093E00E94FC049A
:200B00004BE06AE489E093E00E94FC044BE06CE489E093E00E94FC044BE06EE489E093E08C
:200B20000E94FC044BE06FE489E093E00E94FC044BE061E589E093E00E94FC044BE063E5B5
:200B400089E093E00E94FC044CE06AE489E093E00E94FC044CE06DE489E093E00E94FC0424
:200B60004CE06EE489E093E00E94FC044CE06FE489E093E00E94FC044CE060E589E093E02F
:200B80000E94FC044CE063E589E093E00E94FC044DE06BE489E093E00E94FC044DE06EE448
:200BA00089E093E00E94FC044DE06FE489E093E00E94FC044DE062E589E093E00E94FC04C7
:200BC0004EE06EE489E093E00E94FC044EE06FE489E093E00E94FC044FE06EE489E093E0BB
:200BE0000E94FC044FE06FE489E093E00C94FC04BF92CF92DF92EF92FF920F931F93CF936A
:200C0000DF937C01D62E142FC22FD0E06D2D6D0F412FC7010E94FC04DF5FCD17B8F7CC244C
:200C2000C394CC0ED0E0B12EB00E6D2D6D0F4B2DC7010E94FC04DF5FDC11F7CFD0E0412F2D
:200C40004D0F6D2DC7010E94FC04DF5F0D17B8F70F5FD0E0CD0D412F4D0F6C2FC7010E945A
:200C6000FC04DF5FD013F7CFDF91CF911F910F91FF90EF90DF90CF90BF9008954F925F92D3
:200C80006F927F928F929F92AF92BF92CF92DF92EF92FF920F931F93CF93DF935C01162FB0
:200CA000F42ED22EC62F86E0582E98EF492E88248394912CD0E035015C9E600C711C1124A5
:200CC0004F2D4D0FCC2029F16C2FC5010E94FC04DF5F0D17A8F7CF5F8C2F811BD81650F778
:200CE000EE2031F02D2D4F2D612FC5010E94F805DF91CF911F910F91FF90EF90DF90CF90FE
:200D0000BF90AF909F908F907F906F905F904F900895C435E8F64033D8F6842F869586957D
:200D20008695F301E80FF11D849D400D1124C40101C0880F4A95EAF7809591858923818740
:200D4000C7CF0F9303E021E041E16BE489E093E00E94F80502E023E045E16AE489E093E056
:200D60000E94F8050F910895EF92FF920F931F93CF93DF938C01F62EC42FD3E09BE0E92E74
:200D8000E40E6F2D6D0F4E2DC8010E94FC04DF5FDA30B9F7D2E08CE0E82EEC0E6F2D6D0F25
:200DA0004E2DC8010E94FC04DF5FDB30B9F7D3E0C35F6F2D6D0F4C2FC8010E94FC04DF5F43
:200DC000DA30B9F7DF91CF911F910F91FF90EF900895EF92FF920F931F93CF93DF938C01C7
:200DE000C62FF42ED1E04F2D4D0F6C2FC8010E94FC04DF5FDC30B9F7D2E0EE24E394EC0E1E
:200E00004F2D4D0F6E2DC8010E94FC04DF5FDC30B9F7D3E0CE5F4F2D4D0F6C2FC8010E943C
:200E2000FC04DF5FDB30B9F7DF91CF911F910F91FF90EF900895EF92FF920F931F93CF9326
:200E4000DF938C01C62FF42EDDE04F2D4D0F6C2FC8010E94FC04DF5FD831B9F7DDE0EE241B
:200E6000E394EC0E4F2D4D0F6E2DC8010E94FC04DF5FD731B9F7DEE0CE5F4F2D4D0F6C2FCF
:200E8000C8010E94FC04DF5FD631B9F7DF91CF911F910F91FF90EF900895EF92FF920F9373
:200EA0001F93CF93DF938C01F62EC42FD3E096E1E92EE40E6F2D6D0F4E2DC8010E94FC04D7
:200EC000DF5FDA30B9F7D2E087E1E82EEC0E6F2D6D0F4E2DC8010E94FC04DF5FDB30B9F7F9
:200EE000D1E0C85E6F2D6D0F4C2FC8010E94FC04DF5FDC30B9F7DF91CF911F910F91FF9074
:200F0000EF900895EF92FF920F931F93CF93DF938C01C62FF42EDDE09CE0E92EE60E4F2D17
:200F20004D0F6E2DC8010E94FC04DF5FD831B9F7DDE08BE0E82EEC0E4F2D4D0F6E2DC801E4
:200F40000E94FC04DF5FD731B9F7DEE0C65F4F2D4D0F6C2FC8010E94FC04DF5FD631B9F743
:200F6000DF91CF911F910F91FF90EF900895EF92FF920F931F93CF93DF938C01C62FF42EC8
:200F8000D1E09CE0E92EE60E4F2D4D0F6E2DC8010E94FC04DF5FDC30B9F7D2E08BE0E82E0E
:200FA000EC0E4F2D4D0F6E2DC8010E94FC04DF5FDC30B9F7D3E0C65F4F2D4D0F6C2FC8014B
:200FC0000E94FC04DF5FDB30B9F7DF91CF911F910F91FF90EF900895EF92FF920F931F9345
:200FE000CF93DF938C01F62EC42FD1E06F2D6D0F4C2FC8010E94FC04DF5FDC30B9F7D2E01E
:20100000EE24E394EC0E6F2D6D0F4E2DC8010E94FC04DF5FDB30B9F7D3E0CE5F6F2D6D0F5E
:201020004C2FC8010E94FC04DF5FDA30B9F7DF91CF911F910F91FF90EF9008958F929F92B5
:20104000AF92BF92CF92DF92EF92FF920F931F93CF93DF93EC014C0142E0840E941EF4015D
:201060008081E82EE694E694E694282FF8EFEF9E200D11246A3011F06D3039F4FE01EF5F0C
:20108000FD4F1082885FF4018083FE01ED5FFD4F80819181009709F07CC080EE860F8F3556
:2010A00008F08DC0DE01AF5FBD4FFC90A22EB12C8FEF90E0AC0102C0440F551F2A95E2F7FD
:2010C000D42ED09448E050E04A195B09042E02C0959587950A94E2F7982F90956052770BBA
:2010E00085E0869F8001879F100D11246F2D70E02E2D30E086E0F89E200D311D1124C20F99
:20110000D31F30E020E006511F4FF901E60FF71FE435F105F0F489858D21253090F5F80181
:20112000E20FF31FE491F0E04F010A2C01C0880C0A94EAF78829898785E08E1550F08A85F5
:201140008923042E02C0F595E7950A94E2F7E82BEA872F5F3F4F269627303105B1F687E07B
:201160008F0D8C9381E090E0DF91CF911F910F91FF90EF90DF90CF90BF90AF909F908F900B
:2011800008958987E5E0EE1520F38A8589238A87E0CF0197A1F4162F80ED860F8A3090F09E
:2011A0006C3209F46AC16D3209F484C16E3209F464C1603209F45BC16A3209F489C190E0C8
:2011C00080E0D2CF5E01FFEFAF1AFDEFBF0AC12CE12C08E12FE0F4014081F5016081CE01F5
:2011E0000E943E061153193078F4E12FF0E0E550F74F0C945E2AE009330957097B099109CA
:20120000AE09D909EF091A0AF4014081F5016081CE010E94EC07F4014081F5016081CE01CC
:201220000E94B707F4014081F5016081CE010E948207F4014081F5016081CE010E944D0775
:20124000F4014081F5016081CE010E941B07F4014081F5016081CE010E94E906F50180818A
:20126000815F80837FCFF4014081F5016081CE010E94EC07F4014081F5016081CE010E944E
:20128000B707F4014081F5016081CE010E94B406F4014081F5016081CE010E941B07F401C3
:2012A0004081F5016081CE010E944D07D7CFF4014081F5016081CE010E94EC07F401408184
:2012C000F5016081CE010E94B707F4014081F5016081CE010E948207F4014081F5016081F4
:2012E000CE010E944D07F4014081F5016081CE010E94B406B3CFF4014081F5016081CE0193
:201300000E94B707F4014081F5016081CE010E948207F4014081F5016081CE010E94B4062E
:2013200096CFF4014081F5016081CE010E94EC07F4014081F5016081CE010E94E906F40175
:201340004081F5016081CE010E94B406F4014081F5016081CE010E948207A1CFF40140811D
:20136000F5016081CE010E94EC07F4014081F5016081CE010E94E906F4014081F5016081B8
:20138000CE010E94B406F4014081F5016081CE010E948207F4014081F5016081CE010E949D
:2013A0004D07F4014081F5016081CE010E941B0755CFF4014081F5016081CE010E94EC07A4
:2013C000F4014081F5016081CE010E94B707F4014081F5016081CE010E9482073FCFF401C7
:2013E0004081F5016081CE010E94EC07F4014081F5016081CE010E94B707F4014081F50189
:201400006081CE010E948207F4014081F5016081CE010E944D07F4014081F5016081CE0143
:201420000E941B07F4014081F5016081CE010E94E90659CFF4014081F5016081CE010E94D5
:20144000EC07F4014081F5016081CE010E94B707F4014081F5016081CE010E948207F40161
:201460004081F5016081CE010E944D07DBCFCF5FDD4F9881915F988375CEF401B0807E0100
:20148000FFEFEF1AFDEFFF0AF701108183E0D82ED10E05E14B2D400F612FCE010E94FC04E1
:2014A0000F5F0831B9F71F5F1D11F3CFF70180818B5FD7CE8E010F5F1D4FF4014081F801C7
:2014C0006081CE010E94B406F8018081845FC9CEF40140814F5F5E01FFEFAF1AFDEFBF0A5D
:2014E000C12CEE24E39404E023E0F5016081CE010E943E06F501DBCF089590E080E0089559
:2015000083FF04C098E2892787FD0EC0806494B7977F94BFF89490916000986190936000E8
:20152000809360007894089580E0F1CF109258010E94800AEAE7F0E0908180818F7780838C
:2015400083B7817F846083BFF89483B7816083BF7894889583B78E7F83BF90838FEF0C945F
:20156000800ACF93CFB7F89480915701811124C0E8E0F3E08491ECE1F3E09491E82FF0E032
:20158000EE0FFF1FEC50FD4FA591B491EC91E92321F461E08AE00E9446028AE00E94C0012D
:2015A0008CB580618CBD8CB580648CBD8DE00E94C0018BE00E94C001809157018F5F80934A
:2015C0005701CFBFCF9108958EBD00000DB407FEFDCF8EB50895CF92EF920F93CF93C82F8E
:2015E000893008F0C8E0C12CE12C08E024E041E160E589E093E00E943E0649E14C1BCC2402
:20160000C394EE24E3940C2F24E060E589E093E00E943E06CF910F91EF90CF9008954F9248
:201620005F926F927F928F929F92AF92BF92CF92DF92EF92FF92CF936A017B0190E0B0E096
:20164000A0E04C015D0139E1880C991CAA1CBB1C3A95D1F72CEA35EC47E257E3CB01B601AB
:201660000E941128181654F02CEA35EC47E257EBC701B6010E94652687FF68C020E030E011
:20168000A901C701B6010E94652687FF0FC06894B0F820E030E0A901C701B6010E941128E7
:2016A000181624F0F7FAF094F7F8F094C0E0412C512C320120E030E543E457E4C701B6014D
:2016C0000E94652687FF11C08FEF481A580A680A780A20E030E040E251E4C701B6010E94C8
:2016E00016286B017C01C1E0E5CFCC2311F06894A7F820E034E244EF58E4C701B6010E943D
:201700001128181684F48FEF481A580A680A780A20E030E040E251E4C701B6010E946A269C
:201720006B017C01E6CFC701B6010E94DC2623E1440C551C661C771C2A95D1F7462A572A96
:20174000682A792A84289528A628B728C501B401CF91FF90EF90DF90CF90BF90AF909F90CA
:201760008F907F906F905F904F9008958F929F92AF92BF92CF92DF92EF92FF920F931F93B5
:20178000CF936B017C014B015C0188249924AA2481E0B822C701877099270E9411279701F2
:2017A000860143E136952795179507954A95D1F7C02FCF70E7FE0AC0CC2391F020E030E0AB
:2017C00040E251E40E946A26C150F6CFCC2341F020E030E040E251E40E941628C150F6CF6D
:2017E00089288A288B2809F09058CF911F910F91FF90EF90DF90CF90BF90AF909F908F908A
:201800000895FC0101900020E9F73197AF01481B590BBC0189E093E00C9419028F929F92B8
:20182000AF92BF920F931F93CF93DF93CDB7DEB7A1970FB6F894DEBF0FBECDBF19A2423029
:2018400008F44AE08E010F5D1F4F842E912CB12CA12CA50194010E941D2AE62FB901CA0122
:20186000EA30F4F4E05DD801EE938D01232B242B252B79F790E080E0109719F0CD010E94F4
:20188000010CA1960FB6F894DEBF0FBECDBFDF91CF911F910F91BF90AF909F908F90089524
:2018A000E95CE1CF4F925F926F927F928F929F92AF92BF92CF92DF92EF92FF920F931F9333
:2018C000CF936B017C01742EAC019B010E94D328882399F088E291E0CF911F910F91FF90E7
:2018E000EF90DF90CF90BF90AF909F908F907F906F905F904F900C94010C46015701E8941B
:20190000B7F82FEF3FEF4FE75FE7C501B4010E94D32881110DC02FEF3FEF4FE75FE7C5014B
:20192000B4010E94652618161CF48CE291E0D4CF2FEF3FEF4FE75FE4C701B6010E941128E6
:2019400018161CF480E391E0C7CF2FEF3FEF4FE75FECC701B6010E94652687FDF3CF20E020
:2019600030E0A901C701B6010E94652610E000E087FF0AC06DE289E093E00E941E088C0161
:20198000F7FAF094F7F8F094C0E060E070E080E09FE37C1641F020E030E040E251E40E9481
:2019A0006A26CF5FF6CFA70196010E94F9252B013C010E94DC264B015C014AE00E940E0C09
:2019C0007C01E00EF11ECC23C1F1C501B4010E9411279B01AC01C301B2010E94F8254B01CC
:2019E0005C016EE289E093E00E941E08E80EF91EC15018F120E030E040E251E4C501B4018D
:201A00000E9416282B013C010E94DC264B01B12CA12C4AE0C501B4010E940E0CE80EF91E75
:201A2000C501B4010E9411279B01AC01C301B2010E94F8254B015C01DBCFC701CF911F91A7
:201A40000F91FF90EF90DF90CF90BF90AF909F908F907F906F905F904F9008958F929F9263
:201A6000AF92BF92CF92EF920F934B015C01C12CE12C08E128E440E060E089E093E00E94DA
:201A80003E0681E090E090930D0580930C0510920A0510920B052AE037ED43E25CEBC50115
:201AA000B4010E941128181624F483E491E00E94010C20E030E040E251E4C501B4010E9445
:201AC000652687FF04C083E491E00E94010C41E0C501B4010E94520C84E391E00F91EF9017
:201AE000CF90BF90AF909F908F900C94010C8F929F92AF92BF92CF92EF920F93CF93DF93C2
:201B00004B015C014330510509F447C04430510509F446C0CBE14230510509F03FC0DAE25A
:201B2000C12CEE24E3940AE029E24C2F6D2F89E093E00E943E0610920D0510920C05D95FC2
:201B4000D0930A05CE5FC0930B0520E030E048EC52E4C501B4010E941128181644F520E04C
:201B600030E040E05FE3C501B4010E94F92520E030E04AE754E40E94112818169CF440E086
:201B8000C501B401DF91CF910F91EF90CF90BF90AF909F908F900C94520CC5E2D0E0C0CFBC
:201BA000C5E2BDCF83E491E00E94010CE8CF20E030E040E251E4C501B4010E94112841E0D6
:201BC00087FFDECF42E0DCCFCF92DF92EF92FF920F931F93CF93DF93D82FC62F0E94B902A0
:201BE0006B017C0180914702811165C081E080934702809346029FEF9093450210924402F3
:201C00009C0F909343028093420280914202DD0FD82BD093420280914102813009F07FC032
:201C2000109241020E94B9026B017C01809142028093BB008091490290914A02A0914B020F
:201C4000B0914C02892B8A2B8B2BA1F00E94B9020091490210914A0220914B0230914C0212
:201C60006C197D098E099F09061717072807390708F442C08091BC0083FDD8CF85EC8093FA
:201C8000BC000E94B9026B017C0180914702813009F447C0809144028C1710F4C09144029E
:201CA000A1E2B2E0EDE4F2E080E08C1751F19D9191938F5FFACF8091490290914A02A09124
:201CC0004B02B0914C02892B8A2B8B2B09F48ACF0E94B9020091490210914A0220914B028F
:201CE00030914C026C197D098E099F09061717072807390708F076CF809148020E94610343
:201D0000C0E010929102C09390028C2FDF91CF911F910F91FF90EF90DF90CF90089585EE42
:201D2000AECF8091490290914A02A0914B02B0914C02892B8A2B8B2B09F4A7CF0E94B90261
:201D40000091490210914A0220914B0230914C026C197D098E099F090617170728073907B9
:201D600008F093CFC9CFCF93DF93CEEBD2E09AAD21E02093FF019093200210928F0210921D
:201D80008E02682F82E992E00E94AD040E94820361E08AAD0E94E40D0E94F201DF91CF9155
:201DA0000895CF93DF93C62F9091F80221E02093FF019093200210928F0210928E02682FAD
:201DC00082E992E00E94AD040E94820362E08091F8020E94E40DCC2359F00E94F201C82F08
:201DE0000E94F20120E0822B9C2BDF91CF9108950E94F201EC010E94F20120E0382FC90125
:201E00008C2B9D2BF2CFCF93DF93C62F9091F80221E02093FF019093200210928F021092D0
:201E20008E02682F82E992E00E94AD040E94820362E08091F8020E94E40DCC2359F00E946A
:201E4000F201C82F0E94F20120E0822B9C2BDF91CF9108950E94F201EC010E94F20120E00B
:201E6000382FC9018C2B9D2BF2CF0F931F93CF93DF93D82F60E080910E030E9446021091D5
:201E8000110300911003C8E06D2F661F6627661F802F0E944602DD0F61E0812F0E9446024F
:201EA00060E0812F0E944602C15071F761E080910E03DF91CF911F910F910C944602CF9302
:201EC000C82F60E080910F030E9446028C2FCF910C94350FCF93C82F81E20E945F0F8C2F38
:201EE00080680E945F0F80E2CF910C945F0FCF92DF92EF92FF9290915601981741F0882333
:201F000059F084E20E945F0F81E080935601FF90EF90DF90CF9008958091BC018111F7CF98
:201F200080E20E945F0F109256016091B2017091B3018091B4019091B5010E942E0DC09013
:201F40005201D0905301E0905401F090550120E030E0A901C701B6010E946526882331F0AD
:201F600041E050E0C701B6010E94770DC0904E01D0904F01E0905001F090510120E030E079
:201F8000A901C701B6010E946526882331F042E050E0C701B6010E94770DC0904A01D0902D
:201FA0004B01E0904C01F0904D0120E030E0A901C701B6010E946526882331F043E050E0C5
:201FC000C701B6010E94770DC0904601D0904701E0904801F090490120E030E0A901C70118
:201FE000B6010E946526882309F491CF44E050E0C701B601FF90EF90DF90CF900C94770D22
:20200000DF92EF92FF920F931F93CF93DF9380E40E945F0F80E80E945F0F09E013E0C6E0A7
:202020007801D4E5F701D18461E080910F030E9446028D2D0E94350FD150F6E0EF0EF11C32
:20204000D111F0CFC1500F5F1F4FC111E9CFDF91CF911F910F91FF90EF90DF900895CF93CC
:20206000DF93BC01990F880B990B4AE00E940E0CEC0186E391E00E94010C8C0F9D1FDF912F
:20208000CF910895FF920F931F93CF93DF930DE612E0D0E0C0E0F801F1908F01CE010E94DA
:2020A000AB25F81621F06F2DCE010E94B3252196CC31D10581F78DE692E0DF91CF911F91E5
:2020C0000F91FF9008958F929F92AF92BF92CF92DF92EF92FF926B017C01DC01CB0129E1D0
:2020E000B695A795979587952A95D1F78B3609F421C108F06BC0833309F4E1C028F586319F
:2021000009F4C1C070F4853109F4ADC0C701B601FF90EF90DF90CF90BF90AF909F908F9086
:202120000895873109F4BDC0883181F7C7010E94B60B609346017093470180934801909370
:20214000490144E050E09CC0863609F416C1C0F4843309F4BFC08536C9F64091B60150912B
:20216000B7016091B8017091B90185E6FF90EF90DF90CF90BF90AF909F908F900C940F0B65
:20218000873609F41BC1883609F6C7010E94B60B4B015C0120E030E040E85FE30E941128C3
:2021A00087FDB4CF20E030E040EA50E4C501B4010E94652618160CF4A9CF809279029092AD
:2021C0007A02A0927B02B0927C0219C0853709F4C4C048F5823709F488C0A0F48F3609F46D
:2021E00080C0813709F092CF8FEF860F843608F08DCF809186020E946A0FC09286020E943C
:20220000421084CF833709F48EC0843709F07ECFCB01C297873B934008F078CF70937002A5
:2022200060936F02ECCF883709F46AC080F4863709F49BC0873709F069CF693E43E07407DC
:2022400008F064CF70937E0260937D02D8CF8C3709F4D5C08D3709F059CF40E050E069E5DF
:2022600073E48DE783CFC7010E94B60B6093520170935301809354019093550141E050E047
:202280000E94770D43CFC7010E94B60B60934E0170934F01809350019093510142E050E01B
:2022A000EFCFC7010E94B60B60934A0170934B0180934C0190934D0143E050E0E1CFCB0108
:2022C0008170992761E0892B09F460E083E00E9446021CCF81E0672B09F080E00E94770F6F
:2022E00015CF81E08093A60111CFCB010A9787389E4708F00BCF7093800260937F027FCFD5
:20230000CB019F77F0FE03C09195819591099C01245F31402D3D354008F0F8CE909382027F
:20232000809381026CCF84E1861708F4EFCE6093830265CFCB019F77F0FE03C09195819596
:2023400091099C0128513C4F213D374008F0DECE9093A9018093A801D9CECB01019744975A
:2023600008F0D4CE609384024ACFCB010197449708F0CCCE6093850242CFC7010E94B60BAA
:202380004B015C012DEC3CEC4CEC5DE30E94112887FDBCCE20E030E040E251E4C501B40110
:2023A0000E94652618160CF4B1CE8092710290927202A0927302B092740221CFC7010E946F
:2023C000B60B4B015C0120E030E040E251EC0E94112887FD9BCE20E030E040E251E4C5012F
:2023E000B4010E94652618160CF490CE8092750290927602A0927702B092780200CF69307D
:20240000710519F481E08093A701C6010197049708F07CCEC092880279CE0F931F930091D9
:20242000A4021091A5022091A6023091A70240E052E16AE770E080E00417150726073707F5
:2024400040F476956795579547958F5F8630A1F787E0982F906A9695809581709CBD8DBD41
:2024600080E01F910F910C949202CF93C82F0E940D128C2F80620E94E40A8093A802CF9114
:202480000C94A602CF93DF93D82FC62F0E940D128D2F80620E94E40A8093A8028C2F0E941B
:2024A000E40ADF91CF910C94A6026091AF0261FD0AC062606093AF0280E00E9442128BE124
:2024C0009EE40197F1F708950F931F93CF93DF938091B402C0E0D0E2811107C0C091A902C7
:2024E000DC2FC13208F0D0E2CD1B0E940D1281E60E94E40A8093A8020FED11E0D15038F0A1
:202500008FEF0E94E40AF80181938F01F7CFC15020F08FEF0E94E40AFACFDF91CF911F91D2
:202520000F910C94A602CF93C82F0E940D128C2F0E94E40A8093A8028FEF0E94E40AC82F8C
:202540000E94A6028C2FCF91089580E00E94A9028091B6029091B7028230910538F0880F22
:20256000991F880F991F05970197F1F78091B202882319F081EE0E9435126091AF026E7FD8
:202580006093AF0280E00E94421282E00E949312E4EEF2E0E49161E070E001C0660FEA9539
:2025A000EAF7682B82E00C944212CF93C82F86E00E949312887F6C2FC43008F063E0660F05
:2025C0006F5F682B86E0CF910C944212FF920F931F93CF93DF93C82FF62E072F142F0E94F1
:2025E0000D128C2F80620E94E40A8093A802CF2DD02F115020F089910E94E40AFACFDF9183
:20260000CF911F910F91FF900C94A6020E9455126091AF0261606093AF0280E00E944212CD
:2026200060E787E00E94421281E00E94A9028091B102882339F04091B3026AEA72E08AE01A
:202640000C94E61282E00E949312E4EEF2E0E49121E030E001C0220FEA95EAF72095622F77
:20266000682382E00E9442121092B1020895EFEDF2E084914091B30265E071E00E94E6120C
:2026800082E00E949312E5EEF2E0E49161E070E001C0660FEA95EAF7682B82E00C94421267
:2026A0004F925F926F927F92AF92BF92CF92DF92EF92FF920F931F93CF93DF93082F162F1C
:2026C000D42FC22F0E94100385EA8093BF011092C0011093C101D093C2011092C301CC23CC
:2026E000B9F1C093C401D0E045EAB42E5EE3A52ED01708F0ABC18091C0018F5F8093C00164
:202700000E94A5126AE070E080E090E00E94DE028091B402C0E010E2811107C0C091A902C6
:202720001C2FC13208F010E2C11B0E940D1280EA0E94E40A8093A8023FEBE32E31E0F32EB0
:202740001150A0F0F70181917F010E94E40AF8CF8091BD018F5F893C38F48093BD01809117
:20276000BD018093C401BFCF81E0F7CFC15020F080E00E94E40AFACF0E94A60281E00E94E7
:20278000A9020E9410036B017C018FEF0E9435128091A802807309F05DC00E9410036C198B
:2027A0007D098E099F09603671058105910568F381E08093B5026AE070E080E090E00E949A
:2027C000DE020E9406136AE070E080E090E00E94DE020E9410036B017C01C1E011E00E94A0
:2027E000100320916F023091700226013701420E531E611C711C6415750586059705C8F570
:20280000CC23B9F18FEF0E9435128091A80290E0959587958770863010F70E94641260E437
:2028200087E00E9442128091DF01853AC1F68091E3019091BE01891791F28093BE018091F9
:20284000E1018D33C1F08F3311F0843341F6D02FC0E0C5CF80E00E94A90260E787E00E9444
:2028600042128091A80284FFA6CF81EE0E943512A2CFDF5F3DCF6091E7017091E80180916A
:20288000E9019091EA01611571058105910509F4A4C00E9463106093C7017093C80180932A
:2028A000C9019093CA016091EB017091EC018091ED019091EE01611571058105910509F481
:2028C00095C00E9463106093CB017093CC018093CD019093CE016091EF017091F001809148
:2028E000F1019091F201611571058105910509F486C00E9463106093CF017093D0018093C8
:20290000D1019093D2016091F3017091F4018091F5019091F601611571058105910509F4F0
:2029200077C00E9463106093D3017093D4018093D5019093D6016091F7017091F8018091D5
:20294000F9019091FA01611571058105910509F468C00E9463106093D7017093D801809365
:20296000D9019093DA016091FB017091FC018091FD019091FE01611571058105910509F460
:2029800059C00E9463106093DB017093DC018093DD019093DE018091E301B092BF011092CE
:2029A000C001A092C1011093C2018093C3018091BD018F5F893C08F046C08093BD018091C3
:2029C000BD018093C4018091E2010091850280FF00918402C0E0D0E002CF1092C701109292
:2029E000C8011092C9011092CA015DCF1092CB011092CC011092CD011092CE016CCF10926E
:202A0000CF011092D0011092D1011092D2017BCF1092D3011092D4011092D5011092D60162
:202A20008ACF1092D7011092D8011092D9011092DA0199CF1092DB011092DC011092DD016A
:202A40001092DE01A8CF1093BD01B9CFDF91CF911F910F91FF90EF90DF90CF90BF90AF900B
:202A60007F906F905F904F9008950F931F93CF93DF930DE612E0F80144815581668177815D
:202A800086E60E940F0BCFEBD1E0688779878A879B87F801408551856285738587E60E94FF
:202AA0000F0B6C877D878E879F87F801448555856685778588E60E940F0B688B798B8A8B11
:202AC0009B8BF80184899589B0E0A0E0B06F8C8B9D8BAE8BBF8B80899189B0E0A0E0BE6E5C
:202AE000888F998FAA8FBB8F89ED90E0A0E0BAEF8C8F9D8FAE8FBF8F21EF40E061E083E05F
:202B00000E94501368EE73E080E090E00E94DE02F801818D928DB0E0A0E0B26E8887998730
:202B2000AA87BB8782899389B0E0A0E0B46E8C879D87AE87BF87868990E0B0E0A0E0B66E64
:202B4000888B998BAA8BBB8B82819381B0E0A0E0B86E8C8B9D8BAE8BBF8B878990E0B0E0A4
:202B6000A0E0BA6E888F998FAA8FBB8F808D90E0B0E0A0E0BC6E8C8F9D8FAE8FBF8F22EF51
:202B800041E061E083E00E9450131092A601DF91CF911F910F910895CF9386E00E94931256
:202BA000C82F83E00E94D5122BEF41E068E683E00E94501382E00E94D5122CEF41E067E6CD
:202BC00083E00E94501381E00E94D5122DEF41E066E683E00E94501380E00E94D5122EEFAC
:202BE00041E065E683E00E94501383E00E94D5122FEF41E069E683E00E9450138C2F90E0F4
:202C00009595879583700E94D5121092A701CF9108950E940D1280E50E94E40A8093A80238
:202C200083E70E94E40A0C94A60285ED8093BC008091490290914A02A0914B02B0914C023B
:202C40000796A11DB11D23E0B695A795979587952A95D1F72091BC0024FD03C010924702B6
:202C600008954091490250914A0260914B0270914C02452B462B472B69F30097A105B1053F
:202C800041F02AE22A95F1F700C00197A109B109E1CF809148020C9461032F923F924F9212
:202CA0005F926F927F928F929F92AF92BF92CF92DF92EF92FF920F931F93CF93DF93CDB79D
:202CC000DEB76F970FB6F894DEBF0FBECDBF80910703811105C080910803882309F416C105
:202CE00061E082EF0E94DC0465E284EF0E94DC046AE070E080E090E00E94DE02809107035D
:202D0000811109C080910803811105C061E070E080E090E0F1CF83EF0E94B30E83FDF6CFAA
:202D20008091F80291E09093FF018093200210928F0210928E0267EF82E992E00E94AD04D4
:202D40000E94820380910703882329F066E08091F8020E94E40D80910803882329F068E061
:202D60008091F8020E94E40D0E94F201092E000CAA0BBB0BBA2FA92F982F88278093E8022E
:202D80009093E902A093EA02B093EB020E94F201092E000CAA0BBB0B4091E8025091E902FC
:202DA0006091EA027091EB02842B952BA62BB72BBA2FA92F982F88278093E8029093E902E4
:202DC000A093EA02B093EB020E94F201092E000CAA0BBB0B4091E8025091E9026091EA02ED
:202DE0007091EB02842B952BA62BB72B54E0B595A795979587955A95D1F78093E8029093EA
:202E0000E902A093EA02B093EB020E94F201092E000CAA0BBB0BBA2FA92F982F88278093DB
:202E2000E4029093E502A093E602B093E7020E94F201092E000CAA0BBB0B4091E402509170
:202E4000E5026091E6027091E702842B952BA62BB72BBA2FA92F982F88278093E402909353
:202E6000E502A093E602B093E7020E94F201092E000CAA0BBB0B4091E4025091E502609161
:202E8000E6027091E702842B952BA62BB72BE4E0B595A79597958795EA95D1F78093E4026C
:202EA0009093E502A093E602B093E70280910803882361F10E94F201092E000CAA0BBB0B55
:202EC000BA2FA92F982F88278093EC029093ED02A093EE02B093EF020E94F201092E000C79
:202EE000AA0BBB0B4091EC025091ED026091EE027091EF02842B952BA62BB72B8093EC02D2
:202F00009093ED02A093EE02B093EF0280910603882309F454C06EE284EF0E94DC046AE0E3
:202F200070E080E090E00E94DE0261E086EF0E94030F092E000CAA0BBB0B8093E4029093AB
:202F4000E502A093E602B093E70264E784EF0E94DC046AE070E080E090E00E94DE0261E0D6
:202F600086EF0E94D10EB0E0A0E0BA2FA92F982F88278093E8029093E902A093EA02B093A7
:202F8000EB0288EF0E94B30E4091E8025091E9026091EA027091EB02480F511D611D711D47
:202FA00007E075956795579547950A95D1F74093E8025093E9026093EA027093EB02A0906B
:202FC0000803A98EB0900703BA28B982BB2009F4BDC34091E4025091E5026091E602709197
:202FE000E7028091C4029091C5022A013B0104E075946794579447940A95D1F7481A590AE8
:20300000610871089A01AB0163E055954795379527956A95D1F7880F991F281B390B41090F
:203020005109A091BE02B091BF020E946F2A4B015C01EBE0B594A79497948794EA95D1F783
:20304000A3019201C301B2010E940D2A9B01AC01FCE05595479537952795FA95D1F7A091EE
:20306000C002B091C1020E946F2AAEE09595879577956795AA95D1F7680D791D8A1D9B1D02
:203080008B019C01330F000B102F98016093F0027093F1028093F2029093F3020093F4025F
:2030A0000093F5020093F6020093F70225E030E040E050E00E94CF2A20583F4F4F4F5F4F1D
:2030C0006F4F7F4F8F4F9F4F08E00E94C22B0E940B2720E030E048EC52E40E946A26698BAD
:2030E0007A8B8B8B9C8B09891A892B893C890093FA021093FB022093FC023093FD021981A4
:20310000112309F493C32091F0023091F1024091F2025091F3026091F4027091F502809146
:20312000F6029091F702345F414051096109710981099109322E232E49835D874B018F8F3C
:203140009E8FA22EB32E6A017B018C010E94772A722E632E542E452E6D8B7E8B8F8B988F72
:203160003091C3022091C202932F990F990B492F592F692F792F892F0E94772A0CE00E947D
:20318000A92B2D83B32FA42FF52FE62F7E878F87988B3091CB022091CA02932F990F990B66
:2031A000492F592F692F792F892FA72CB62CC52CD42CED88FE880F89188D0E94DF2B08E0A5
:2031C0000E94C22BAD80BB2ECA2EDF2EEE2EFE840F8518890E94DF2B70588F4F9F4FE091C1
:2031E000C602F091C7025F01D12CC12CE12CF12C8701ED83BE82CF82D886E986FA860B87E1
:203200001C87C12CD12CE12CF12C00E010E00E94772A01E20E94C22B2D833E874F87588B44
:203220006A8F7B8F8C8F9D8FA0E0C12CD12C76010E94FD2B09F43EC13091D1022091D00286
:20324000932F990F990BA72CB62CC52CD42CED88FE880F89188D492F592F692F792F892F8A
:203260000E94772A29013A016D8B7E8B8F8B988F3091CF022091CE02932F990F990BA32C74
:20328000B22CC980DD8474010F8D1E8D492F592F692F792F892F0E94772A01E10E94A92B57
:2032A00052016301ED88FE880F89188D0E94DF2B59016A017B01382E192F4091E8025091E8
:2032C000E9026091EA027091EB0280E090E0A0E1B0E0841B950BA60BB70B2C013D01770CB7
:2032E0004408542C32019C01AD01642D742D842D942D0FE10E94A92B49014D875983B62F9B
:20330000A72FF82FE92F3091CD022091CC02932F990F990B492F592F692F792F892F03E29E
:203320000E94A92B032D0E94DF2B59016A017B018C0194014D8559816B2F7A2F8F2F9E2F5E
:203340000E94F42BE5E3AE2EFCE0BF2EC12CD12CE12CF12C00E010E00E94772AAD80BE84A9
:20336000CF84D888EA8CFB8C0C8D1D8D0E940B2B2E8B3D8B49835D876D837E878F87988B23
:203380000DE00E94C22B922E832E742E652E562E472E382E292E3091D7022091D602932F70
:2033A000990F990BA92CB82CC72CD62CE52CF42C032D122D492F592F692F792F892F0E94D9
:2033C000772A0E94772A09E10E94C22BAE88BD88C980DD84ED80FE840F8518890E94DF2B9B
:2033E00019012A013B014C013091D5022091D402932F990F990B492F592F692F792F892FDA
:203400000E94772A03E10E94C22B59016A017B018C019101A201B301C4010E94DF2B08E0E6
:203420000E94C22B59016A017B01E82F192F3091D3022091D202932F990F990B492F592F34
:20344000692F792F892F04E00E94A92B0E2F0E94DF2B122F3D834983B52FF62FE72FF82E1F
:20346000092FA0E00E94FD2B84F421503F4F4F4F5F4F6F4F7F4F8F4F9F4F122F3D834983E2
:20348000B52FF62FE72FF82E092F212F3D8149815B2F6F2F7E2F8F2D902F08E00E94C22B10
:2034A0000E940B2720E030E048EC52E40E946A266B017C01C0920203D0920303E09204036B
:2034C000F0920503298D812C912C80E8A82E8FEBB82E222309F4DAC08091F0029091F102B1
:2034E000A091F202B091F3028C019D011C522140310909831A832B833C834090EC02509009
:20350000ED026090EE027090EF024EE0440C551C661C771C4A95D1F78091DA029091DB0255
:20352000092E000CAA0BBB0B54E1880F991FAA1FBB1F5A95D1F7481A590A6A0A7B0AA09100
:20354000DC02B091DD02A90198010E946F2A461A570A680A790A10E4510E611C711C6FE08D
:2035600075946794579447946A95D1F7A091E002B091E1020E946F2A4B015C017BE0B594FB
:20358000A794979487947A95D1F720E8920EA11CB11CA091E202B091E30229813A814B8135
:2035A0005C810E946F2AEAE09595879577956795EA95D1F7A50194010E940D2A9B01AC0137
:2035C000FAE05595479537952795FA95D1F7405E5F4FA091D802B091D9020E946F2A705EF0
:2035E0008F4F9F4FAEE09595879577956795AA95D1F7A30192010E940D2A4B015C01BFE0C4
:203600009595879577956795BA95D1F79B01AC010E940D2A9B01AC0117E055954795379551
:2036200027951A95D1F7A091DE02B091DF020E946F2A04E095958795779567950A95D1F750
:20364000861A970AA80AB90AB7FE03C0812C912C5401C501B40161307105810539E19307C1
:2036600024F060E070E080E099E12CE095958795779567952A95D1F70E94132720E030E0FF
:2036800040E85AE30E9416284B015C018092FE029092FF02A0920003B092010389899A8957
:2036A000AB89BC898093B2019093B301A093B401B093B50123E333E948E853E4BC01CD01FF
:2036C0000E94F9259B01AC016BE774E18EE19FE30E946A2620E030E040E85FE30E94F925DD
:2036E00028E539E348EA50E40E948328A70196010E9416286093AE017093AF018093B001B6
:203700009093B101998D992341F08092AA019092AB01A092AC01B092AD016F960FB6F89411
:20372000DEBF0FBECDBFDF91CF911F910F91FF90EF90DF90CF90BF90AF909F908F907F90AC
:203740006F905F904F903F902F90089580910603882309F4C8CC8091C8029091C9022091A3
:20376000E4023091E5024091E6025091E702281B390B41095109A091C602B091C7020E9468
:20378000642A4B015C01AFE0B594A79497948794AA95D1F76091CE027091CF02072E000CBE
:2037A000880B990BBBE0660F771F881F991FBA95D1F72091D0023091D102032E000C440B13
:2037C000550B280D391D4A1D5B1D0E943F2ADA01C901880D991DAA1DBB1D4C015D01BB0C13
:2037E0008808982C54018093F0029093F102A093F202B093F3028092F4028092F502809283
:20380000F6028092F7029C01AD01682D782D882D982DA8E00E94E82B04E00E94C22B0E9454
:203820000B2720E030E040E251E457CC80910603882309F43FCEC090F002D090F102E090F8
:20384000F202F090F30200EAC01A0FE0D00AE108F108A7019601C701B6010E940D2A9B015D
:20386000AC01FCE05595479537952795FA95D1F7A091CA02B091CB020E946F2A2B013C016B
:20388000A091C202B091C302A70196010E946F2A9B01AC01ADE05595479537952795AA9550
:2038A000D1F7C301BB2797FDB095AB2F280F391F4A1F5B1F2E5F3F4F4F4F5F4F12E0559532
:2038C0004795379527951A95D1F730584F4F5F4FA091C402B091C5020E94642A4B015C0161
:2038E0000FE0B694A794979487940A95D1F7A091C002B091C102A70196010E946F2A2BE02B
:2039000095958795779567952A95D1F73BE075946794579447943A95D1F7460E571E681E07
:20392000791E8091BE029091BF02092E000CAA0BBB0B42E0880F991FAA1FBB1F4A95D1F7C4
:20394000840D951DA61DB71D2C013D01440C551C661C771C12E0410E511C611C711C62E052
:2039600075946794579447946A95D1F72091E8023091E9024091EA025091EB022419350969
:2039800046095709A8EAB1E60E94642A97FD42C0660F771F881F991FA50194010E941D2AFB
:2039A00069017A019927F7FC9A958F2D7E2D6D2D9B01AC010E940D2A9B01AC01AEEDBBE09E
:2039C0000E94642A4B015C01A3E4B3EEA70196010E94722ABC01992777FD9095892F450155
:2039E000BB2497FCB094AB2C680D791D8A1D9B1D6153714F8F4F9F4F44E09595879577951A
:203A000067954A95D1F76C0D7D1D8E1D9F1D0E94132748CDA50194010E941D2A69017A018F
:203A2000CC0CDD1CEE1CFF1CBDCF1F920F920FB60F9211242F933F938F939F93AF93BF939B
:203A400080919E0190919F01A091A001B091A10130919D0123E0230F2D3758F50196A11DA6
:203A6000B11D20939D0180939E0190939F01A093A001B093A1018091A2019091A301A0914F
:203A8000A401B091A5010196A11DB11D8093A2019093A301A093A401B093A501BF91AF91A9
:203AA0009F918F913F912F910F900FBE0F901F90189526E8230F0296A11DB11DD2CF1F9209
:203AC0000F920FB60F9211242F933F934F935F936F937F938F939F93AF93BF93EF93FF9332
:203AE0008091B900887F803609F44AC0F0F5883209F4A7C018F5803109F49BC0B8F48823C8
:203B000009F4F9C0883009F494C0FF91EF91BF91AF919F918F917F916F915F914F913F9146
:203B20002F910F900FBE0F901F901895883109F488C0803251F78093450214C0803409F487
:203B40009DC040F48033B9F38833F9F68093450285ECB0C0803509F485C0883509F496C089
:203B6000883499F60E941516D0CF883909F48CC038F5883729F050F4883611F0803729F6A6
:203B800083E08093470210929C0157C0883809F47BC0803919F0803809F0B7CF80919C0171
:203BA000803208F071C0E0919C0181E08E0F80939C018091BB00F0E0E458FE4F80833DC049
:203BC000803B39F0E0F4803A09F479C0883A09F09CCF84E08093470210927B0110927A011C
:203BE000E0918C02F0918D02099580917A0181110FC081E080937A0110925A0109C0803CBA
:203C000009F4A6CF883C09F4A3CF883B09F07DCFE0917B0181E08E0F80937B01F0E0E65A6D
:203C2000FE4F80818093BB0090917B0180917A0129C0809142028093BB0085EC8093BC00F3
:203C400064CF9091440280914302981758F5E091440281E08E0F80934402F0E0EF5DFD4F02
:203C60008081E9CFE091440281E08E0F809344028091BB00F0E0EF5DFD4F808390914402DF
:203C8000809143029817C8F285E8D8CFE091440281E08E0F809344028091BB00F0E0EF5D5B
:203CA000FD4F80838091460281115CCF81E08093410284EA8093BC001092470226CF85EC5A
:203CC0008093BC001092470280919C01803230F4E0919C01F0E0E458FE4F108260919C011F
:203CE00070E0E0918A02F0918B028CE791E0099510929C010ACF1092450234CF1F920F9291
:203D00000FB60F9211248F93809158018F5F809358018F910F900FBE0F901F9018951F93E9
:203D2000CF93DF93E2E9F2E01382128288EE93E0A0E0B0E084839583A683B7838EE091E08F
:203D40009183808380E090E0A0E8BFE380930E0590930F05A0931005B0931105C9E0D3E0F8
:203D60001B821A8280E291E09983888382E08C8384E08D8315E01E8386E08F8387E08887A7
:203D800082E00E94C0018D810E94C0018E810E94C0018F810E94C00188850E94C0011092F6
:203DA00006031092070310920803109291021092900210928F0210928E020E9443038EEB72
:203DC00091E090938D0280938C028FEB91E090938B0280938A02EEE9F2E08AE090E093834C
:203DE000828389E090E09583848380E896E9A8E9B0E086839783A087B18780E28387128A34
:203E0000138A158B81E0868B85E090E0A0E0B0E0848F958FA68FB78F89E892E09183808362
:203E20001486DF91CF911F910895789484B5826084BD84B5816084BD85B5826085BD85B570
:203E4000816085BD80916E00816080936E00109281008091810082608093810080918100A1
:203E6000816080938100809180008160809380008091B10084608093B1008091B0008160BC
:203E80008093B00080917A00846080937A0080917A00826080937A0080917A0081608093EA
:203EA0007A0080917A00806880937A001092C10064EF71E080E090E00E94DE0283E00E942A
:203EC000C00161E083E00E9446020DE612E0D0E0C0E0CE010E94AB25F80181938F012196C9
:203EE000CC31D105B1F780916D0290916E02059709F451C085E090E090936E0280936D02A2
:203F0000109287028DE2809386028CE390E09093800280937F0288EE93E0909382028093B1
:203F200081021092830288EC90E09093700280936F028AE08093840283E08093850280E07A
:203F400090E0A0E8BFE38093710290937202A0937302B09374028DEC9CECACE0BFE3809307
:203F6000750290937602A0937702B093780280E090E0A0E6B0E48093790290937A02A0937C
:203F80007B02B0937C028AE590E090937E0280937D020E9442100E94B10A87E78093F80203
:203FA00080ED0E94B30E8093F902882341F086E78093F80280ED0E94B30E8093F90266EB9E
:203FC00080EE0E94DC046AEF70E080E090E00E94DE028091F9028835E1F08036F1F085350B
:203FE00019F481E08093060380910703811105C080910803882309F4BCC083EF0E94B30EB0
:2040000080FF0FC061E070E080E090E00E94DE02F4CF81E080930703E7CF81E080930803F9
:20402000E3CF60E088E80E94D10E9093C5028093C40260E08AE80E94030F9093BF0280937D
:20404000BE0260E08CE80E94030F9093C1028093C00260E08EE80E94D10E9093C702809347
:20406000C60260E080E90E94030F9093C3028093C20260E082E90E94030F9093CB028093FA
:20408000CA0260E084E90E94030F9093CD028093CC0260E086E90E94030F9093CF028093B6
:2040A000CE0260E088E90E94030F9093D1028093D00260E08AE90E94030F9093D30280937E
:2040C000D20260E08CE90E94030F9093D5028093D40260E08EE90E94030F9093D702809346
:2040E000D60281EA0E94B30E90E09093DF028093DE0260E081EE0E94030F9093D90280933F
:20410000D80283EE0E94B30E90E09093E1028093E00284EE0E94B30EC82F85EE0E94B30EE4
:20412000F0E1CF9F900111248F70282B3093DB022093DA0286EE0E94B30EC82F85EE0E9416
:20414000B30E20E1C29FE001112490E044E0959587954A95E1F78C2B9D2B9093DD02809301
:20416000DC0287EE0E94B30E90E09093E3028093E20280910603882309F448C061E08AEA9B
:204180000E94030F9093BF028093BE0261E08CEA0E94030F9093C1028093C00261E08EEAD5
:2041A0000E94030F9093C3028093C20261E080EB0E94D10E9093C5028093C40261E082EBEE
:2041C0000E94D10E9093C7028093C60261E084EB0E94D10E9093C9028093C80261E086EBE9
:2041E0000E94030F9093CB028093CA0261E08CEB0E94030F9093CF028093CE0261E08EEB3F
:204200000E94030F9093D1028093D00280910703811104C080910803882341F060E085EFF2
:204220000E94DC0465E284EF0E94DC040E94B10A8091A0029091A1028F3F980709F484C03E
:204240002091A2023091A3022F3F320709F47CC08217930731F00E94C0018091A2020E94B5
:20426000C00180E00E94A90281E00E94920265E070E080E090E00E94DE026FE584E00E94F8
:20428000421285E590E0A0E0B0E08093B6029093B702A093B802B093B90267E086E00E94FF
:2042A00042128DE10E949312C82F0E9409168DE10E94931291E0C81390E09093B00288234C
:2042C00041F0C81302C00E94091660E08DE10E9442121092B20260E08CE10E944212109210
:2042E000B4026FE381E00E94421263E082E00E94421280E28093A902C1E16091A9028C2FAB
:204300000E944212CF5FC731C1F763E083E00E94421285E08093B3026CE40E94421260E773
:2043200087E00E94421282EE0E94351281EE0E9435126CE080E00E94421280E00E94931226
:204340008093AF020E9455126CE585E00E94421286E00E949312877D4BE950E060E070E03F
:204360004093B6025093B7026093B8027093B902682F606286E00E94421286E00E94931249
:2043800083E00E94D51260E084E00E94421260E081E00E9442128091B202882351F08DE1E1
:2043A0000E949312682F6D6F8DE10E9442121092B20260E08DE10E94421260E08CE10E9496
:2043C00042121092B4021092B20280E28093A902C1E16091A9028C2F0E944212CF5FC731A6
:2043E000C1F76091AF026C606093AF0280E00E9442124091B30260E071E08AE00E94E61282
:204400004091B30260E071E080E10E94E6120E94371368EE73E080E090E00E94DE0260E063
:2044200083E00E94460260E080910D030E94460264EF71E080E090E00E94DE0261E080919C
:204440000D030E94460281E20E945F0F85E00E945F0F83E10E945F0F81EC0E945F0F80E227
:204460000E945F0F8CE00E945F0F80E20E945F0F0E9405020E94001010920A0510920B0580
:20448000809186020E946A0F10920D0510920C050E94050286E391E00E94010C89E391E0F2
:2044A0000E94010C85EA90E00E942F1086E391E00E94010C80E491E00E94010C89ED90E09A
:2044C0000E942F100E94001068EE73E080E090E00E94DE020E9405020E941A050E94A1069B
:2044E00088E00E94EB0A1092BB011092BA010E94CC150E9435151EE433E7A32E35E0B32EB0
:20450000C0E0D0E06AE070E080E090E00E94DE021092C7011092C8011092C9011092CA01B1
:204520001092CB011092CC011092CD011092CE011092CF011092D0011092D1011092D201EF
:204540001092D3011092D4011092D5011092D6011092D7011092D8011092D9011092DA018F
:204560001092DB011092DC011092DD011092DE0180917C008E3429F010937C00C501019758
:20458000F1F780917A00806480937A0080917A0086FDFCCF609178007091790090E080E0AB
:2045A0000E9411279B01AC016DEC7CEC8CE894E40E946A2620910E0530910F05409110057A
:2045C000509111050E941628209171023091720240917302509174020E9416282091750206
:2045E0003091760240917702509178020E94F9256B017C01C092B601D092B701E092B801E6
:20460000F092B9014090790250907A0260907B0270907C0220E030E040EC5FE3C301B201D7
:204620000E94112818164CF4A3019201C701B6010E94652618160CF0CAC01092BC0180E0DB
:204640000E94770F209183028091BA019091BB012817190608F402C14090B6015090B70117
:204660006090B8017090B901C12CEE24E39404E027E040E06CE489E093E00E943E0602E062
:2046800021E041E06AE489E093E00E943E062DEC3CEC4CE650E4C301B2010E9411281816C1
:2046A0000CF0E1C0CC24C39421E041E062E589E093E00E943E0623E333E343E750E4C301AD
:2046C000B2010E941128181664F4CC24C394EE24E39402E021E041E060E589E093E00E942F
:2046E0003E062AE939E949E750E4C301B2010E941128181664F4CC24C394EE24E39402E053
:2047000021E041E06EE489E093E00E943E0620E030E040E850E4C301B2010E941128181677
:2047200064F4CC24C394EE24E39402E021E041E06CE489E093E00E943E060E94A106E09082
:20474000BA01F090BB01B70190E080E00E9411272B013C016091830270E090E080E00E945F
:2047600013279B01AC01C301B2010E946A269B01AC0160E070E080E89FE30E94F82520E08B
:2047800030E040E051E40E9416280E94DC26862F0E94EB0AEF2811F40E941A050E94001055
:2047A0000E944D166091B2017091B3018091B4019091B5010E942E0DC12CE12C07E023E03D
:2047C00041E16AE489E093E00E943E061CC081E08093BC010E94770F20917D0230917E0201
:2047E0008091BA019091BB012817390720F41092BB011092BA018091BA019091BB01892B65
:2048000011F40E944D168091BA019091BB01892B09F0D9C00E9455126AE070E080E090E02C
:204820000E94DE020E9406130E9437136AE070E080E090E00E94DE028FEF0E9435128091EB
:20484000A80290E0959587958770863058F50E94641260E487E00E944212E8CF1092BB0130
:204860001092BA01F9CE40E06DE489E093E00E94FC0441E06EE489E093E00E94FC0442E012
:204880006FE489E093E00E94FC0443E060E589E093E00E94FC0444E061E589E093E00E9479
:2048A000FC0409CF4091B6015091B7016091B8017091B90185E60E940F0B6093C7017093B5
:2048C000C8018093C9019093CA014091B2015091B3016091B4017091B50181E00E940F0BB1
:2048E0006093CB017093CC018093CD019093CE014091AE015091AF016091B0017091B101F0
:2049000082E00E940F0B6093CF017093D0018093D1019093D20180910803882399F04091E6
:20492000AA015091AB016091AC017091AD0183E00E940F0B6093D3017093D4018093D5014B
:204940009093D6018091BC0141E8811101C041E020E063E3809184020E9450138091A70157
:20496000882341F00E94CC1568EC70E080E090E00E94DE028091A601882341F00E94351562
:2049800068EC70E080E090E00E94DE020E94A5126AE070E080E090E00E94DE0280E00E94DA
:2049A000A9026091AF026D7F6093AF0280E00E944212C12CE12C09E029E046E06AE489E0FB
:2049C00093E00E943E060E94001080917F02909180022091A8013091A901032E000C440B46
:2049E000550B280F391F411D511DA0918102B0918202CD01845F91408D3D9540C8F40E9404
:204A0000642A1092A9011092A8016B017C01F9E0CF16F0E2DF06E104F10468F089E00E94D6
:204A2000960A28E0C21A20E2D20AE108F108EFCFA8EEB3E0E4CF45E0C41640E1D406E104B9
:204A4000F10448F088E00E94960A64E0C61A60E1D60AE108F10881EDC81687E0D806E104E2
:204A6000F10448F087E00E94960A90EDC91A97E0D90AE108F108E9EECE16E3E0DE06E1047D
:204A8000F10448F086E00E94960AF8EECF1AF3E0DF0AE108F10825EFC21621E0D206E1042A
:204AA000F10448F085E00E94960A44EFC41A41E0D40AE108F1086BEFC616D104E104F1044B
:204AC00040F084E00E94960A8AEFC81AD108E108F1089EE7C916D104E104F10440F083E044
:204AE0000E94960AEDE7CE1AD108E108F108FDE3CF16D104E104F10440F082E00E94960AB5
:204B00002CE3C21AD108E108F1084FE1C416D104E104F10440F081E00E94960A6EE1C61A34
:204B2000D108E108F10880E1C816D104E104F10418F081E00E94960A8091BA019091BB0178
:204B400001969093BB018093BA01209709F4DACC0E940000D7CCF999FECF92BD81BDF89AF4
:204B6000992780B50895262FF999FECF1FBA92BD81BD20BD0FB6F894FA9AF99A0FBE0196D0
:204B800008952F923F924F925F926F927F928F929F92AF92BF92CF92DF92EF92FF920F9398
:204BA0001F93CF93DF93CDB7DEB7CA1BDB0B0FB6F894DEBF0FBECDBF09942A883988488864
:204BC0005F846E847D848C849B84AA84B984C884DF80EE80FD800C811B81AA81B981CE0F64
:204BE000D11D0FB6F894DEBF0FBECDBFED0108955058BB27AA270E9410260C94D7270E9482
:204C0000C92738F00E94D02720F039F49F3F19F426F40C94B6270EF4E095E7FB0C94B02754
:204C2000E92F0E94E82758F3BA17620773078407950720F079F4A6F50C940A280EF4E09524
:204C40000B2EBA2FA02D0B01B90190010C01CA01A0011124FF27591B99F0593F50F4503ED3
:204C600068F11A16F040A22F232F342F4427585FF3CF469537952795A795F0405395C9F79A
:204C80007EF41F16BA0B620B730B840BBAF09150A1F0FF0FBB1F661F771F881FC2F70EC0E1
:204CA000BA0F621F731F841F48F4879577956795B795F7959E3F08F0B0CF9395880F08F032
:204CC0009927EE0F9795879508950E948C2708F481E008950E947E260C94D7270E94D02766
:204CE00058F00E94C92740F029F45F3F29F00C94B02751110C940B280C94B6270E94E827FC
:204D000068F39923B1F3552391F3951B550BBB27AA2762177307840738F09F5F5F4F220F96
:204D2000331F441FAA1FA9F335D00E2E3AF0E0E832D091505040E695001CCAF72BD0FE2F33
:204D400029D0660F771F881FBB1F261737074807AB07B0E809F0BB0B802DBF01FF2793587D
:204D60005F4F3AF09E3F510578F00C94B0270C940B285F3FE4F3983ED4F386957795679541
:204D8000B795F7959F5FC9F7880F911D9695879597F90895E1E0660F771F881FBB1F6217FE
:204DA00073078407BA0720F0621B730B840BBA0BEE1F88F7E09508950E94F02788F09F5709
:204DC00098F0B92F9927B751B0F0E1F0660F771F881F991F1AF0BA95C9F714C0B13091F071
:204DE0000E940A28B1E008950C940A28672F782F8827B85F39F0B93FCCF3869577956795D9
:204E0000B395D9F73EF490958095709561957F4F8F4F9F4F089597FB16F40E94B9270C941E
:204E20004F27E89409C097FB3EF490958095709561957F4F8F4F9F4F9923A9F0F92F96E928
:204E4000BB279395F695879577956795B795F111F8CFFAF4BB0F11F460FF1BC06F5F7F4FF1
:204E60008F4F9F4F16C0882311F096E911C0772321F09EE8872F762F05C0662371F096E8DB
:204E8000862F70E060E02AF09A95660F771F881FDAF7880F9695879597F90895E894F92F52
:204EA00096EBFF2381F0121613061406440B9395F69587957795679557954040FF23B9F71F
:204EC0001BC099270895882351F49850D2F7872B762F652F542F432F322F20E0B1F31216EC
:204EE00013061406440B88233AF09A95440F551F661F771F881FCAF755234AF4440F551F65
:204F000011F460FF04C06F5F7F4F8F4F9F4F880F9695879597F90895990F0008550FAA0B2D
:204F2000E0E8FEEF16161706E807F907C0F012161306E407F50798F0621B730B840B950BFA
:204F400039F40A2661F0232B242B252B21F408950A2609F4A140A6958FEF811D811D089564
:204F600097F99F6780E870E060E008959FEF80EC08959095809570956095509540953095BC
:204F800021953F4F4F4F5F4F6F4F7F4F8F4F9F4F089500240A9416161706180609060895B7
:204FA00000240A9412161306140605060895092E0394000C11F4882352F0BB0F40F4BF2B78
:204FC00011F460FF04C06F5F7F4F8F4F9F4F089557FD9058440F551F59F05F3F71F047957D
:204FE000880F97FB991F61F09F3F79F087950895121613061406551FF2CF4695F1DF08C07C
:20500000161617061806991FF1CF86957105610508940895E894BB2766277727CB0197F99C
:2050200008950E948C2708F48FEF08950E9429280C94D7270E94C92738F00E94D02720F073
:20504000952311F00C94B0270C94B62711240C940B280E94E82770F3959FC1F3950F50E0CB
:20506000551F629FF001729FBB27F00DB11D639FAA27F00DB11DAA1F649F6627B00DA11D9A
:20508000661F829F2227B00DA11D621F739FB00DA11D621F839FA00D611D221F749F33271C
:2050A000A00D611D231F849F600D211D822F762F6A2F11249F5750409AF0F1F088234AF0BB
:2050C000EE0FFF1FBB1F661F771F881F91505040A9F79E3F510580F00C94B0270C940B281B
:2050E0005F3FE4F3983ED4F3869577956795B795F795E7959F5FC1F7FE2B880F911D9695D8
:20510000879597F90895FA01EE0FFF1F309621053105A1F16115710561F48038BFE39B073F
:2051200049F168949038810561F08038BFEF9B0741F099234AF5FF3FE1053105210519F1DC
:20514000E8940894E795D901AA2329F4AB2FBE2FF85FD0F310C0FF5F70F4A695E0F7F73942
:2051600050F019F0FF3A38F49F779F930DD00F9007FC9058089546F00C94B62760E070E0F2
:2051800080E89FE308954FE79F775F934F933F932F930E9483292F913F914F915F910E9484
:2051A00016280C94E0280E948C27880B990B089529F416F00C94B0270C940A280C94B627F7
:2051C0000E94F027A8F39638A0F707F80F92E8942BE33AEA48EB5FE70E942C280F920F9217
:2051E0000F924DB75EB70F920E94CB29E8E6F0E00E9412294F915F91EF91FF91E595EE1FDC
:20520000FF1F49F0FE57E0684427EE0F441FFA95E1F74195550B0E9445290F9007FE0C94DE
:2052200039290895DF93CF931F930F93FF92EF92DF927B018C01689406C0DA2EEF010E945F
:205240002928FE01E894A5912591359145915591A6F3EF010E941026FE019701A801DA9405
:2052600069F7DF90EF90FF900F911F91CF91DF9108959B01AC0160E070E080E89FE30C9431
:205280006A260C94B0270C94FF290E94F027D8F39923C9F3940F511DA3F39150504094F0A7
:2052A00059F0882332F0660F771F881F91505040C1F79E3F51052CF7880F911D969587951B
:2052C00097F908955F3FACF0983E9CF0BB27869577956795B79508F4B1609395C1F7BB0FFD
:2052E00058F711F460FFE8CF6F5F7F4F8F4F9F4FE3CF0C940B2816F00C94FF290C94B6270C
:2053000068940C94B0270E94F027A8F39923C1F3AEF3DF93CF931F930F93FF92C92FDD2700
:2053200088232AF02197660F771F881FDAF720E030E040E85FEB9FE3883920F0803E38F0B2
:2053400021968F770E94F925E0E9F0E004C00E94F925EDEBF0E00E9412298B01BE01EC01F6
:20536000FB2E6F5771097595771F880B990B0E94132728E132E741E35FE30E942928AF2DBA
:205380009801AE01FF900F911F91CF91DF910E9410260C94D727FA01DC01AA0FBB1F9B0199
:2053A000AC01BF5728F4222733274427507820C0B75190F4AB2F0024469537952795011C4E
:2053C000A395D2F3002071F0220F331F441FB395DAF30ED00C94F82561307105A0E88A0799
:2053E000B94630F49B01AC016627772788279078309621F0208331834283538308959F3F1B
:2054000031F0915020F4879577956795B795880F911D9695879597F90895DB018F939F931D
:205420000E94642ABF91AF91A29F800D911DA39F900DB29F900D11240895A1E21A2EAA1B01
:20544000BB1BFD010DC0AA1FBB1FEE1FFF1FA217B307E407F50720F0A21BB30BE40BF50B09
:20546000661F771F881F991F1A9469F760957095809590959B01AC01BD01CF010895052EC9
:2054800097FB1EF400940E94562A57FD07D00E941D2A07FC03D04EF40C94562A50954095AC
:2054A000309521953F4F4F4F5F4F089590958095709561957F4F8F4F9F4F0895EE0FFF1F73
:2054C0000590F491E02D09940E94092CA59F900DB49F900DA49F800D911D11240895B7FF5A
:2054E0000C94642A0E94642A821B930B0895DF93CF931F930F939A9DF02D219FF00D8B9D15
:20550000F00D8A9DE02DF10D039FF00D029FE00DF11D4E9DE00DF11D5E9DF00D4F9DF00D5A
:205520007F936F93BF92AF925F934F93D5010E94092C8B01AC01D7010E94092CEB01E80F79
:20554000F91FD6010E94C62A2F913F91D6010E94092CC60FD71FE81FF91FAF91BF910E9470
:20556000C62A2F913F910E94092CC60FD71FE81FF91FD6010E94092CE60FF71F9801BE01D9
:20558000CF010F911F91CF91DF9108950E94092C460F571FC81FD91F08F43196089597FB0B
:2055A00057FF0C94DF2A9F938F930E94DF2A6E1B7F0BAF91BF918A0B9B0B0895E894DF9384
:2055C000CF93FC01DB010E94092C7F936F93E9019A01AC01BF93AF933F932F93DF010E94C9
:2055E000092C26F46C1B7D0B820B930B9E01EB01FC010E94C62AAF91BF912F913F910E9446
:20560000C62ABE01CF01F9012F913F91CF91DF910895689401C0E894F92FF12B12F00C94F5
:205620003D2BA0E0B0E0E7E1FBE20C94C725092E059422F40E94992B112392F4F0E80F26AE
:20564000FFEFE094F09400951095B094C094D094A194BF0ACF0ADF0AEF0AFF0A0F0B1F0B28
:205660000E94482B07FC0E94992BCDB7DEB7ECE00C94E325689401C0E8948F929F92CF9332
:20568000DF930E94482BDF91CF919F908F90089588249924F401E401B0E49F93AA279A153F
:2056A0008B049C04ED05FE05CF05D007A10798F4AD2FDC2FCF2FFE2FE92D982C892E982F7D
:2056C000872F762F652F542F432F322F2227B85031F7BF9127C01B2EBF91BB27220F331FD7
:2056E000441F551F661F771F881F991F881C991CEE1FFF1FCC1FDD1FAA1FBB1F8A149B040E
:20570000EC05FD05CE05DF05A007B10748F08A189B08EC09FD09CE09DF09A00BB10B216061
:205720001A94E1F62EF49401AF01BE01CD01000C0895609570958095909530954095509594
:2057400021953F4F4F4F5F4F6F4F7F4F8F4F9F4F0895002E083090F0982F872F762F652F28
:20576000542F432F322F22270850F4CF220F331F441F551F661F771F881F991F0A95B2F753
:20578000002D089597FD1094002E083098F00850232F342F452F562F672F782F892F912D60
:2057A000F4CF1594979587957795679557954795379527950A95AAF71124002D08952A0D67
:2057C0003B1D4C1D5D1D6E1D7F1D801F911F08950024A7FD00942A0F301D401D501D601D52
:2057E000701D801D901D08952A193B094C095D096E097F09800B910B08950024A7FD0094D4
:205800002A1730054005500560057005800590050895A29FB001B39FC001A39F700D811D85
:205820001124911DB29F700D811D1124911D0895F894FFCF33CCFCCCCCF0CCFCCCCC00005C
:205840000000AD0480047D0A69047904DF016A04000000001E0819027D0A7C0A6E616E00C9
:20586000696E66006F7666002A000D0A004E6F64653A200053573A200000FFFFFFFFFFFF81
:20588000FFFFFFFFFFFFFFFFFFFFFFFFFFFFFFFFFFFFFFFFFFFFFFFFFFFFFFFFFFFFFFFF28
:2058A000FFFFFFFFFFFFFFFFFFFFFFFFFFFFFFFFFFFFFFFFFFFFFFFFFFFFFFFFFFFFFFFF08
:2058C000FFFFFFFFFFFFFFFFFFFFFFFFFFFFFFFFFFFFFFFFFFFFFFFFFFFFFFFFFFFFFFFFE8
:2058E000FFFFFFFFFFFFFFFFFFFFFFFFFFFFFFFFFFFFFFFFFFFFFFFFFFFFFFFFFFFFFFFFC8
:207E0000112484B714BE81FFF0D085E08093810082E08093C00088E18093C10086E08093FC
:207E2000C20080E18093C4008EE0C9D0259A86E020E33CEF91E0309385002093840096BBAD
:207E4000B09BFECF1D9AA8958150A9F7CC24DD2488248394B5E0AB2EA1E19A2EF3E0BF2E79
:207E6000A2D0813461F49FD0082FAFD0023811F0013811F484E001C083E08DD089C0823404
:207E800011F484E103C0853419F485E0A6D080C0853579F488D0E82EFF2485D0082F10E0A0
:207EA000102F00270E291F29000F111F8ED068016FC0863521F484E090D080E0DECF84364D
:207EC00009F040C070D06FD0082F6DD080E0C81680E7D80618F4F601B7BEE895C0E0D1E0ED
:207EE00062D089930C17E1F7F0E0CF16F0E7DF0618F0F601B7BEE89568D007B600FCFDCF1A
:207F0000A601A0E0B1E02C9130E011968C91119790E0982F8827822B932B1296FA010C016F
:207F200087BEE89511244E5F5F4FF1E0A038BF0751F7F601A7BEE89507B600FCFDCF97BE85
:207F4000E89526C08437B1F42ED02DD0F82E2BD03CD0F601EF2C8F010F5F1F4F84911BD0B8
:207F6000EA94F801C1F70894C11CD11CFA94CF0CD11C0EC0853739F428D08EE10CD085E9AE
:207F80000AD08FE07ACF813511F488E018D01DD080E101D065CF982F8091C00085FFFCCF0A
:207FA0009093C60008958091C00087FFFCCF8091C00084FD01C0A8958091C6000895E0E68F
:207FC000F0E098E1908380830895EDDF803219F088E0F5DFFFCF84E1DECF1F93182FE3DF47
:207FE0001150E9F7F2DF1F91089580E0E8DFEE27FF270994FFFFFFFFFFFFFFFFFFFF040425
:00000001FF
