:100000000C94AC000C94D4000C94D4000C94D40048
:100010000C94D4000C94D4000C9441140C94D4008F
:100020000C94D4000C94D4000C94D4000C94D40000
:100030000C94D4000C94D4000C94D4000C94D400F0
:100040000C94D8120C94D4000C94D4000C94D400CA
:100050000C94D4000C94D4000C94D4000C94D400D0
:100060000C9422130C94D40007634236B79BD8A794
:100070001A39685618AEBAAB558C1D3CB7CC5763CD
:10008000BD6DEDFD753EF6177231BF000000803F7B
:1000900008000000BE922449123EABAAAA2ABECD97
:1000A000CCCC4C3E00000080BEABAAAAAA3E000009
:1000B0000000BF000000803F000000000008417801
:1000C000D3BB4387D1133D190E3CC3BD4282AD2B38
:1000D0003E68EC8276BED98FE1A93E4C80EFFFBE30
:1000E00001C4FF7F3F00000000000000000024006A
:1000F00027002A0000000000250028002B00000136
:10010000020304051112131415160A0B0C0D0E0F21
:100110000000000023002600290004040404040455
:1001200004040202020202020303030303030102A6
:100130000408102040800102040810200102040875
:100140001020000000080002010000030407000066
:10015000000000000000521411241FBECFEFD8E0B1
:10016000DEBFCDBF24E0ACE1B1E001C01D92A43000
:10017000B207E1F711E0A0E0B1E0E4E3F3E402C08C
:1001800005900D92AC31B107D9F710E0CCEAD0E080
:1001900004C02197FE010E940920CB3AD107C9F77C
:1001A0000E94C6140C9498210C9400008CBD9DBD37
:1001B000089508950895FC01408151818281823023
:1001C00040F081E0838380E051834083828381E03B
:1001D00008952091A9033091AA03B90164237523DE
:1001E00080916B0290916C026817790739F0409109
:1001F000A6035091A7038091A803E6CFC90180957B
:10020000909563E0880F991F6A95E1F78423952301
:10021000892B41F083E0220F331F8A95E1F7276095
:100220004223532385E0D0CF8230910538F0880FE8
:10023000991F880F991F05970197F1F708958091ED
:100240007C008E3439F08EE480937C0083E795E067
:100250000197F1F780917A00806480937A00809111
:100260007A0086FDFCCF609178007091790090E073
:1002700080E00E94EE1C9B01AC016DEC7CEC8CE8F4
:1002800094E40E94401C20910004309101044091AC
:100290000204509103040E94F31D0895833081F0FD
:1002A00028F4813099F08230A9F008958730A9F0C0
:1002B0008830C9F08430B1F4809180008F7D03C014
:1002C000809180008F7780938000089584B58F7728
:1002D00084BD089584B58F7DFBCF8091B0008F776A
:1002E0008093B00008958091B0008F7DF9CF1F9367
:1002F000CF93DF93282F30E0F901EE5BFE4F84911E
:10030000F901E25DFE4FD491F901E65EFE4FC49122
:10031000CC23A9F0162F81110E944E01EC2FF0E0A2
:10032000EE0FFF1FEC50FF4FA591B4918FB7F894DB
:10033000EC91111108C0D095DE23DC938FBFDF91C3
:10034000CF911F910895DE2BF8CFCF93DF9390E0EC
:10035000FC01E25DFE4F2491865E9E4FFC0184917C
:100360008823D1F090E0880F991FFC01E651FF4FE0
:10037000A591B491FC01EC50FF4FC591D49161114E
:100380000EC09FB7F8948C91E22FE0958E238C934A
:100390002881E223E8839FBFDF91CF9108958FB733
:1003A000F894EC91E22BEC938FBFF6CF3FB7F89423
:1003B0008091CA019091CB01A091CC01B091CD0167
:1003C00026B5A89B05C02F3F19F00196A11DB11DB0
:1003D0003FBFBA2FA92F982F8827BC01CD01620FEC
:1003E000711D811D911D42E0660F771F881F991FA7
:1003F0004A95D1F708958F929F92AF92BF92CF9274
:10040000DF92EF92FF926B017C010E94D6014B01BB
:100410005C01C114D104E104F104B9F00E94D601D9
:10042000681979098A099B09683E7340810591051D
:1004300080F321E0C21AD108E108F10888EE880EA5
:1004400083E0981EA11CB11CE4CFFF90EF90DF90D9
:10045000CF90BF90AF909F908F9008952FB7F89452
:100460006091C6017091C7018091C8019091C90146
:100470002FBF089585ED8093BC008091BC0084FD62
:10048000FCCF10921202089520917E01260F33278F
:10049000331F21323105ECF420911202FC0190E06F
:1004A00080E0243069F082E00895A0917E012191DE
:1004B000AC01425A5E4FA40FB52FB11D2C9301968B
:1004C000861798F380917E01680F60937E0180E02B
:1004D000089581E008950895E09114028091130237
:1004E000E81730F4F0E0E25CFE4F808190E0089580
:1004F0008FEF9FEF089590911402809113022FEFD8
:100500003FEF981748F4E92FF0E0E25CFE4F2081BE
:1005100030E09F5F90931402C90108958091130207
:1005200090911402891B990B0895CF92DF92EF925C
:10053000FF920F931F93CF93DF937C01CB018A012E
:1005400020911802222389F0EB016B01C40ED51E05
:10055000CC15DD0569F06991D701ED91FC91019011
:10056000F081E02DC7010995F3CF642F0E9444026A
:10057000C801DF91CF911F910F91FF90EF90DF9015
:10058000CF900895CF93DF931F92CDB7DEB76983E5
:10059000209118022223F9F020911502203258F000
:1005A00021E030E0FC013383228390E080E00F9073
:1005B000DF91CF91089580911602E82FF0E0E25E7E
:1005C000FE4F998190838F5F80931602809315026E
:1005D00081E090E0ECCF61E0CE0101960E94440200
:1005E000F7CF2091150281E0213208F044C08091BC
:1005F00012028111FCCF8091170292E090931202B7
:1006000091E0909311029FEF9093A1011092C3018A
:100610002093C201AEE1B1E0E2EAF1E090E02913FB
:1006200031C01092C4019091C401880F892B80932E
:10063000C40180911002813049F51092100280911E
:10064000C4018093BB008091BC0083FDF8CF85EC92
:100650008093BC00809112028230E1F38091A1016D
:100660008F3FB1F08091A1018032A1F08091A10172
:10067000803391F084E010921602109215021092CD
:10068000180208953D9131939F5FC9CF85EEE0CF69
:1006900080E0F1CF82E0EFCF83E0EDCF90E080E02B
:1006A0000895089583FF04C098E2892787FD0EC04E
:1006B000806494B7977F94BFF8949091600098619C
:1006C00090936000809360007894089580E0F1CF6B
:1006D00010921D010E945203EAE7F0E090818081B0
:1006E0008F77808383B7817F846083BFF89483B7DB
:1006F000816083BF7894889583B78E7F83BF908312
:100700008FEF0C945203CF92DF92EF92FF926B0126
:100710007C0189E0C81680E2D806E104F10450F0BB
:1007200089E00E94680388E0C81A80E2D80AE108DC
:10073000F108EFCF85E0C81680E1D806E104F104A6
:1007400048F088E00E94680384E0C81A80E1D80A73
:10075000E108F10881EDC81687E0D806E104F1044C
:1007600048F087E00E94680380EDC81A87E0D80A45
:10077000E108F10889EEC81683E0D806E104F10427
:1007800048F086E00E94680388EEC81A83E0D80A21
:10079000E108F10885EFC81681E0D806E104F1040C
:1007A00048F085E00E94680384EFC81A81E0D80A07
:1007B000E108F1088BEFC816D104E104F10440F020
:1007C00084E00E9468038AEFC81AD108E108F108A2
:1007D0008EE7C816D104E104F10440F083E00E94E2
:1007E00068038DE7C81AD108E108F1088DE3C8163F
:1007F000D104E104F10440F082E00E9468038CE33C
:10080000C81AD108E108F1088FE1C816D104E10443
:10081000F10440F081E00E9468038EE1C81AD1081B
:10082000E108F10880E1C816D104E104F10438F0D0
:1008300081E0FF90EF90DF90CF900C946803FF90E1
:10084000EF90DF90CF900895CF93CFB7F894809139
:100850001C01811127C0E4E2F1E08491E8E3F1E0BA
:100860009491E82FF0E0EE0FFF1FE651FF4FA591A6
:10087000B491EC91E92321F461E08AE00E947701D0
:1008800061E08AE00E94A5018CB580618CBD8CB5C9
:1008900080648CBD61E08DE00E94A50161E08BE089
:1008A0000E94A50180911C018F5F80931C01CFBF26
:1008B000CF910895FC012081318182819381281795
:1008C000390719F0822F0C9477010895CF93DF93A5
:1008D000EC018CB58F7D8CBD8CB5837F8CBD8CB5C8
:1008E0008C7F8CBD8DB581608DBD8A810E94770122
:1008F0008C899D89DF91CF910C94140161E00C9457
:10090000660460E00C9466048EBD00000DB407FE22
:10091000FDCF8EB50895CF92DF92EF92FF920F93A5
:100920001F93CF93DF939091DB039F3F51F4DF91AF
:10093000CF911F910F91FF90EF90DF90CF900C948B
:100940008404D82EF12CC7E0D0E001E010E0FF0CC9
:1009500060E08091DB030E947701B8010C2E01C09A
:10096000660F0A94EAF76D218091D9030E947701FE
:1009700061E08091DB030E9477012091DA0330E08F
:10098000F901EE5BFE4F8491F901E25DFE4FE490C8
:10099000F901E65EFE4FC490CC2081F081110E94E7
:1009A0004E01EC2DF0E0EE0FFF1FE05FFE4FA59132
:1009B000B491EC91EE2211F06894F0F8219708F0D0
:1009C000C6CF8F2DDF91CF911F910F91FF90EF90A8
:1009D000DF90CF900895CF93DF93D82FC62F8091CB
:1009E000D8038F3F59F58091CB039091CC03209190
:1009F000CF0331E0309318022093170210921602B1
:100A000010921502DC01ED91FC910190F081E02D36
:100A10006D2F09958091CB039091CC03DC01ED9172
:100A2000FC910190F081E02D6C2F09958091CB0312
:100A30009091CC03DF91CF910C94F1028091DB0374
:100A40008F3F21F482E591E00E94D60060E0809122
:100A5000D8030E9477018D2F8F770E948B048C2FF3
:100A60000E948B0461E08091D803DF91CF910C94B8
:100A700077011F93CF93DF93EC01162F0E9481041F
:100A8000812F0E948404182FCE010E947E04812FA2
:100A9000DF91CF911F91089561EE0C9439050F936A
:100AA0001F93CF93DF938C01C62FD42F0E94810414
:100AB0008C2F8F7180620E948404C82F8D2F0E941A
:100AC0008404C8010E947E048C2FDF91CF911F9176
:100AD0000F910895CF92DF92EF92FF920F931F93A1
:100AE000CF93DF937C01C62F6A01122F0E948104ED
:100AF0008C2F8F7180620E948404082FE6011150B0
:100B000020F089910E948404FACFC7010E947E04DC
:100B1000802FDF91CF911F910F91FF90EF90DF9089
:100B2000CF9008951F93CF93DF93EC01162F0E946F
:100B30008104812F0E9484048FEF0E948404182F67
:100B4000CE010E947E04812FDF91CF911F910895E5
:100B500066E08BEA93E00E949205482F476066E0CA
:100B60008BEA93E00C944F050F931F93CF938C0166
:100B700066E08BEA93E00E949205C82FC77D85E569
:100B800090E0A0E0B0E00230110529F4C0628BE9EA
:100B900090E0A0E0B0E08093BB039093BC03A093EF
:100BA000BD03B093BE034C2F66E08BEA93E00E9436
:100BB0004F0566E08BEA93E00E94920591E0C8132E
:100BC00090E0892FCF911F910F9108951F93CF939C
:100BD000DF93EC01162F61E00E949205482F11234C
:100BE00041F0416061E0CE01DF91CF911F910C9403
:100BF0004F054E7FF7CFCF93DF93EC0160E00E946B
:100C0000920581FD0EC0482F426060E0CE010E9437
:100C10004F0565E070E080E090E0DF91CF910C94AB
:100C2000FB01DF91CF910895CF93DF93EC0160E05A
:100C30000E945A04888999890E9414016DE1CE01AD
:100C40000E94920581FF07C0888999890E9414013A
:100C5000CE010E944C0560E0CE010E949205482F13
:100C60004E7F60E0CE010E944F0562E0CE010E94FF
:100C70009205EEEFF0E0E49141E050E001C0440F56
:100C8000EA95EAF7482B62E0CE01DF91CF910C9410
:100C90004F05CF93DF93EC010E94FB0560E0CE018E
:100CA0000E949205482F416060E0CE010E944F05EE
:100CB00040E767E0CE010E944F0561E0CE010E944F
:100CC0005A048985882399F02E85AE01475F5F4FCE
:100CD0006AE0CE010E946A056DE1CE010E94920594
:100CE00081FF1AC0CE01DF91CF910C944C0562E0D8
:100CF000CE010E949205EEEFF0E0E49121E030E0B9
:100D000001C0220FEA95EAF72095422F482362E0BE
:100D1000CE010E944F05E0CFDF91CF910895CF9390
:100D2000DF93CDB7DEB728970FB6F894DEBF0FBEBE
:100D3000CDBFAC019CEC99839A839B839C839D835C
:100D40001E821F8218869A01E1E021153105C9F043
:100D5000611103C04115510569F4D901A770BB2782
:100D6000AE5FBE4F8C91A1E0B0E0AC0FBD1FAE0FE7
:100D7000B11D8C9383E0369527958A95E1F7EF5F57
:100D8000E4CF611102C0452BB9F4E62FF0E0EE5F2D
:100D9000FE4F8081898329813A814B815C816D81FD
:100DA0007E818F81988528960FB6F894DEBF0FBE9E
:100DB000CDBFDF91CF910895F0E0EF5FFE4F8081CE
:100DC0008A83E9CFFF920F931F93CF93DF9309E1BB
:100DD00012E0D0E0C0E0F801F1908F01CE010E9456
:100DE000811BF81621F06F2DCE010E94891B2196E0
:100DF000C431D10581F789E192E0DF91CF911F9154
:100E00000F91FF900895CF92DF92EF92FF926A01C7
:100E10007B0185568131F8F4E82FF0E0EE5EF84F63
:100E20000C94092023072B072B072B072B072B07D5
:100E30002B072B072B072B07320761078607A9070C
:100E4000CC070B082E08C090E801D090E901E09093
:100E5000EA01F090EB01C701B601FF90EF90DF903F
:100E6000CF90089520E03CE34CE156E4CB01B6017D
:100E70000E94EE1D1816C4F420E03AEB4BE55AE44C
:100E8000C701B6010E943B1C87FF0EC0C701B60117
:100E90000E94B91C6093190270931A0280931B027E
:100EA00090931C020E94E2066091190270911A024E
:100EB00080911B0290911C020E94EE1C6B017C0130
:100EC000CACF20E030E040E05FE3CB01B6010E94F2
:100ED000EE1D181654F020E030E048EA51E4C70156
:100EE000B6010E943B1C87FF0AC0C701B6010E94E1
:100EF000B91C70931E0260931D020E94E20660916D
:100F00001D0270911E0290E080E0D6CF20E030E01C
:100F100040E05FE3CB01B6010E94EE1D181654F0CD
:100F200020E030E048EA51E4C701B6010E943B1CD2
:100F300087FF0AC0C701B6010E94B91C7093200246
:100F400060931F020E94E20660911F0270912002CE
:100F5000DACF20E030E040E05FE3CB01B6010E9451
:100F6000EE1D87FD14C020E030E048EA51E4C701DF
:100F7000B6010E943B1C87FF0AC0C701B6010E9450
:100F8000B91C70932202609321020E94E2066091D4
:100F9000210270912202B7CF20E030E040E05FE311
:100FA000CB01B6010E94EE1D181654F420E13CE777
:100FB00042E159E4C701B6010E943B1C87FD14C001
:100FC00020E030E040E05FEBC701B6010E943B1C2F
:100FD00087FF16C020E13CE742E159ECC701B601AA
:100FE0000E94EE1D181664F4C701B6010E94B21CDF
:100FF0006093CE017093CF018093D0019093D10183
:101000006091CE017091CF018091D0019091D1017A
:101010000E94F01C53CF20E030E040E251E4CB01CD
:10102000B6010E94EE1D181654F020E030E04AE7A9
:1010300054E4C701B6010E943B1C87FF0AC0C701E8
:10104000B6010E94B91C70932402609323020E948F
:10105000E206609123027091240255CF20E030E037
:1010600040E05FE3CB01B6010E94EE1D181654F478
:1010700020E030E84BEB55E4C701B6010E943B1C71
:1010800087FD14C020E030E040E05FEBC701B6010F
:101090000E943B1C87FF14C020E030E84BEB55EC6E
:1010A000C701B6010E94EE1D181654F4C701B6011F
:1010B0000E94B21C70932602609325020E94E206F1
:1010C0006091250270912602072E000C880B990B67
:1010D0009FCF7F928F929F92AF92BF92CF92DF92DB
:1010E000EF92FF920F931F93CF93DF93CDB7DEB7AD
:1010F00028970FB6F894DEBF0FBECDBF482FF62E4F
:10110000E72E262F372F2115310509F498C0822F9D
:101110008770863008F07FC0E3E036952795EA9522
:10112000E1F7F1CF40936A02809590959093AA03DE
:101130008093A90363E0969587956A95E1F7A901E5
:10114000482359235093A7034093A603009759F0CF
:1011500043E0369527954A95E1F753E096958795B4
:101160005A95E1F7F3CF2093A80386E0782E8824E0
:101170008394912C7A9400916802109169028FEF08
:10118000781609F445C0672D8F2D9E2D0E948F067D
:1011900029833A834B835C836D837E838F83988717
:1011A000C72CD12CF601E65FFE4F5F017110C2C063
:1011B000F801468550E0BE016F5F7F4FC801099678
:1011C0000E947D21F5016491F8012685AE014F5FF3
:1011D0005F4FC8010E946A05F601EC5FFE4F649103
:1011E000F8014781C8010E944F0562E0C8010E94D2
:1011F0009205F601E250FF4FE491A40101C0440FB3
:10120000EA95EAF7482B62E0C8010E944F05B2CF89
:10121000C8010E94490628960FB6F894DEBF0FBE9B
:10122000CDBFDF91CF911F910F91FF90EF90DF9095
:10123000CF90BF90AF909F908F907F900895F09245
:101240006B02E0926C028091680290916902FC014D
:10125000208131812F3F3105F1F2FC012281338160
:101260002F3F3105C1F24F3F31F04D3708F04DE7C8
:1012700065E00E944F0560E08091680290916902EC
:101280000E94E60500916802109169026DE1C801B3
:101290000E949205482F44606DE1C8010E944F05ED
:1012A0006CE1C8010E949205482F4F636CE1C801B0
:1012B0000E944F0581E0F801808780916B02909138
:1012C0006C0266E070E00E94F51F482F440F4B5FF0
:1012D000F0E14F9FA0011124456064E08091680215
:1012E000909169020E944F0589E190E0A0E0B0E092
:1012F00080933A0290933B02A0933C02B0933D024C
:101300008BE490E090933F0280933E0220916B0229
:1013100030916C0240E08FEF9FEFB9016823792391
:10132000672B09F4FFCE73E0880F991F7A95E1F7D8
:101330004F5FF3CFF1E07F1609F444CFF5016491DC
:1013400021E044CFEF92FF920F931F93CF93DF934F
:101350008C01E0906D02F12CE7012897FC01968149
:101360008CE6890F8330D8F0983C09F471C093382B
:1013700009F0F6C088E0E0E4F2E0AAE0B3E0019012
:101380000D928A95E1F788E492E09093150380939B
:101390001403D0931303C093120382E052C0943914
:1013A00009F056C08781873020F01092110380E049
:1013B00048C040910E0350910F032481358142179C
:1013C000530749F440910A0350910B032081318166
:1013D00042175307A9F1F8E18F9FC00111244091F2
:1013E0000803509109032EEF32E0241B350B281718
:1013F00039075CF48091630281608093630280917D
:101400006802909169020E94140688E0E0E4F2E02C
:10141000AAE0B3E001900D928A95E1F7AE0168E48D
:1014200072E080911403909115030E947D21D09366
:101430001303C09312038091110381508093110311
:1014400081E0DF91CF911F910F91FF90EF90089570
:101450008BE6890F823018F0983C09F081C020910A
:10146000120330911303AE01420F531F413951054E
:1014700008F09BCF80911103882309F498CF963907
:1014800021F0F8019781891392CF40910E0350917A
:101490000F03F801848195814817590709F087CF18
:1014A0008091140390911503AE0168E472E0820FFD
:1014B000931F0E947D218091120390911303C80F06
:1014C000D91FD0931303C0931203F8018681863984
:1014D00009F0B1CF109211038781809310038338F4
:1014E00009F45BCFA0910803B09109038EEF92E05D
:1014F0008A1B9B0B8C179D0738F18AE0EAE0F3E02A
:1015000001900D928A95E1F780910803909109036B
:1015100060911403709115034091120350911303CD
:101520000A960E947D212091120330911303265FB9
:101530003F4F8091080390910903820F931F90936E
:101540000903809308037CCF80916802909169021F
:101550000E9414068091630281608093630227CF0A
:10156000A0910803B0910903CD018E5692408C0FD3
:101570009D1F8B39910508F01ACF88E0E0E4F2E076
:1015800001900D928A95E1F7E0910803F09109032B
:10159000D187C0878091080390910903AE0168E468
:1015A00072E00A960E947D21F2E0EF0EF11C80911C
:1015B000080390910903E80EF91EF0920903E092E6
:1015C00008033ECF4F925F926F927F928F929F92CD
:1015D000AF92BF92CF92DF92EF92FF92CF93DF93C1
:1015E000EC014A015B010E942E026B017C01240187
:1015F00035018FE5480E511C611C711C67E1CE015D
:101600000E94920584FD44C06FEFCE010E9439050F
:1016100084FF2FC040E167E0CE010E944F0560E0EB
:10162000CE010E945A0461E0CE010E945A040E9439
:101630002E026C197D098E099F09681579058A05A6
:101640009B05B8F060E0CE010E945A04CE010E94D2
:101650004C0580E0DF91CF91FF90EF90DF90CF902D
:10166000BF90AF909F908F907F906F905F904F90C2
:1016700008950E942E026C197D098E099F09461655
:1016800057066806790608F0B9CF81E08F87E1CF69
:1016900060E0CE010E945A0481E0DCCF8F929F92DD
:1016A000AF92BF92CF92DF92EF92FF920F931F9370
:1016B000CF93DF93CDB7DEB728970FB6F894DEBF90
:1016C0000FBECDBF142F0E948F0669014A015B0136
:1016D0007C018091630282FD06C080916802909136
:1016E00069020E941406809168029091690260E08C
:1016F000111101C061E00E94E6050091680210919D
:101700006902C982DA828B829C82AD82BE82EF82BC
:10171000F886F8012685AE014F5F5F4F6AE0C80189
:101720000E946A05F8012685AE014F5F5F4F60E1B8
:10173000C8010E946A05F801478161E1C8010E9461
:101740004F050091680210916902E0906D020E94BD
:101750002E024B015C016FEFC8010E94390580FF2A
:101760004AC06FEFC8010E94390584FF34C040E1D0
:1017700067E0C8010E944F0510E08091630282FD7E
:1017800016C040913A0250913B0260913C02709128
:101790003D0280916802909169020E94E20A182F2E
:1017A00060E080916802909169020E94E605812FB5
:1017B00028960FB6F894DEBF0FBECDBFDF91CF9154
:1017C0001F910F91FF90EF90DF90CF90BF90AF905F
:1017D0009F908F9008950E942E02681979098A09B6
:1017E0009B09603671058105910508F4B4CF81E04D
:1017F000F8018787C1CFF801F780FE1408F4EF2CB9
:10180000F8018085FE188111F12CC8010E94810425
:1018100080EA0E94840480E4A82E82E0B82EEA9434
:10182000FFEFEF1631F0F50181915F010E94840412
:10183000F6CFFA94FFEFFF1621F080E00E948404B7
:10184000F8CFC8010E947E0461E0C8010E945A04DA
:1018500011E093CFCF92DF92EF92FF920F931F93FD
:10186000CF93DF9300D000D0CDB7DEB79C01211518
:10187000310509F45AC0422F4770463008F053C072
:1018800043E0369527954A95E1F7F1CF81118AC05B
:1018900010E08FC0112319F0133009F089C00F3701
:1018A00008F086C08091630282FF1AC040913A021C
:1018B00050913B0260913C0270913D028091680220
:1018C000909169020E94E20A809163028B7F80936B
:1018D000630260E080916802909169020E94E605CF
:1018E00080916802909169020E9449060E942E022E
:1018F0006B017C010E94F10C813C09F459C00E94EB
:101900002E02AB01BC014C195D096E097F09809163
:101910003E0290913F02B0E0A0E084179507A60731
:10192000B70740F7B5CF10E04EC0162F7C010091ED
:10193000460201541C821B829A8389836B83CE01E9
:1019400001960E94DB004C816B8189819A810E9403
:101950004E0B113009F09ACF882309F499CF898171
:101960009A81E816F906F1F40F37E0F481EC8093E0
:1019700046028091400290914102909343028093ED
:1019800042029A8389831B831C82CE0101960E94A6
:10199000DB0088E080936D024C816B8189819A81A4
:1019A0000E944E0B89819A81E816F90609F072CFE0
:1019B00011E08091630282FD06C0809168029091DF
:1019C00069020E944906812F0F900F900F900F908F
:1019D000DF91CF911F910F91FF90EF90DF90CF900B
:1019E00008953F924F925F926F927F928F929F9253
:1019F000AF92BF92CF92DF92EF92FF920F931F931D
:101A0000CF93DF938091630281FD15C0209108037D
:101A10003091090380FD06C0A9014E565240493756
:101A200051054CF000E02E56324011F008F0C5C0D0
:101A30008E7F809363020E942E024B015C0100E0C6
:101A400044244394512CFBE7EF2EF5E2FF2EA4E251
:101A5000CA2EA9E0DA2EC0916802D091690288816D
:101A600099818F3F910509F4A8C08A819B818F3F9E
:101A7000910509F4A2C067E1CE010E94920580FDA4
:101A80009CC06FEFCE010E9439050E942E0268199A
:101A900079098A099B09683E73408105910508F020
:101AA0008CC0C0916802D0916902CE010E9481046D
:101AB00080E60E9484048FEF0E948404182FCE01D8
:101AC0000E947E04113298F062EECE010E94390528
:101AD00062E070E080E090E00E94FB0110926D02F5
:101AE0006AE070E080E090E00E94FB01B4CF1093C8
:101AF0006D021830A8F3C0916802D09169023F804E
:101B0000311608F4132D8885311A8111312CCE013C
:101B10000E94810481E60E94840470E4672E72E0D2
:101B2000772E115038F08FEF0E948404F3018193D7
:101B30003F01F7CF3A94FFEF3F1621F08FEF0E945D
:101B40008404F8CFCE010E947E0440E767E0CE0116
:101B50000E944F058091420290914302EC01209730
:101B600009F4B0C02C2F2770263008F074CF63E042
:101B7000D695C7956A95E1F7F2CF033C81F40097BB
:101B800071F09093410280934002109243021092B0
:101B9000420260E090E080E00E942A0C5CCF8091DD
:101BA00062028823E9F007FF1DC08CE6800F8330B6
:101BB000C8F0083CB9F00338A9F0802FDF91CF912D
:101BC0001F910F91FF90EF90DF90CF90BF90AF905B
:101BD0009F908F907F906F905F904F903F9008956F
:101BE000013C19F380E492E00E94A209823009F0DE
:101BF00032CF03E8E2CF8034910509F061C0023CA6
:101C0000D9F48091630283FD26CF243249E0340762
:101C100009F421CF809140029091410290934302B8
:101C20008093420230934102209340026091A803C6
:101C300070E090E080E067C080E492E00E94A2093A
:101C4000182F809139028823B9F180916B0290910D
:101C50006C029C0153E0369527955A95E1F7232BAA
:101C600019F0F7013197F1F783709927FC0128E506
:101C700032E0E29FC001E39F900DF29F900D11248E
:101C80000E94140180916A02882369F08150990BA7
:101C90009C01220F331F820F931FE20102C0CC0F61
:101CA000DD1F8A95E2F764E0CE0123E0880F991FDB
:101CB0002A95E1F70E942A0C123009F0CCCE99CF78
:101CC00061E06ACF0091460220916B0230916C0274
:101CD0008217930709F08FCF023809F4BCCE003881
:101CE00009F04BCF8432994009F459CFD092430286
:101CF000C092420262E084E299E00E942A0C6AE00B
:101D000070E080E090E00E94FB0162E0809142027E
:101D10009091430241CF0F931F93CF930E942E02C5
:101D20000091640210916502209166023091670271
:101D3000601B710B820B930B693171058105910555
:101D400020F40E94F10C87FFE9CF8BE193E001972B
:101D5000F1F780E280936D0280916B0290916C02AA
:101D60009093C4038093C30388E0E3ECF3E0A0E422
:101D7000B2E001900D928A95E1F788E1E4EFF1E09D
:101D8000A8E4B2E001900D928A95E1F760E08091BD
:101D9000C5039091C6030E942A0CC82F81110AC066
:101DA0000E942E0260936402709365028093660223
:101DB000909367028C2FCF911F910F91089580917E
:101DC00012028111FCCF81E08093120280931102F4
:101DD0009FEF9093A1011092C301940F9093C201C1
:101DE0008093C4018091C401660F682B6093C40185
:101DF00080911002813019F5109210028091C40177
:101E00008093BB008091BC0083FDF8CF85EC80936C
:101E1000BC00809112028130E1F38091C3018417EC
:101E200010F44091C301A2EAB1E0EEE3F1E080E0FA
:101E3000841307C01092140280931302089585EE54
:101E4000E6CF9D9191938F5FF3CFCF93DF93C82F10
:101E50008091D8038F3F09F046C08091CB039091C9
:101E6000CC032091CF0331E0309318022093170266
:101E70001092160210921502DC01ED91FC91019076
:101E8000F081E02D6C2F09958091CB039091CC03CC
:101E90000E94F10242E06091CF038091CB039091C8
:101EA000CC030E94DF0E8091CB039091CC03DC0128
:101EB000ED91FC910284F385E02D0995C82F809166
:101EC000CB039091CC03DC01ED91FC910284F3856E
:101ED000E02D099520E03C2FE901C82BD92BCE013C
:101EE000DF91CF9108958091DB038F3F21F482E54C
:101EF00091E00E94D60060E08091D8030E947701B3
:101F00008C2F0E948B0480E00E948B04C82F80E0FD
:101F10000E948B04DC2FC82F61E08091D8030E94BF
:101F20007701DDCF0E94250F9827892798270895EC
:101F30008F929F92AF92BF92CF92DF92EF92FF92D9
:101F4000F82E8091D8038F3F09F070C08091CB03A9
:101F50009091CC032091CF0331E03093180220936D
:101F600017021092160210921502DC01ED91FC91FD
:101F70000190F081E02D6F2D09958091CB03909118
:101F8000CC030E94F10243E06091CF038091CB0328
:101F90009091CC030E94DF0E8091CB039091CC03F3
:101FA000DC01ED91FC910284F385E02D09954C0153
:101FB000990FAA08BB08BA2CA92C982C88248091C8
:101FC000CB039091CC03DC01ED91FC910284F3856D
:101FD000E02D0995092E000CAA0BBB0B882A992A23
:101FE000AA2ABB2ABA2CA92C982C88248091CB032E
:101FF0009091CC03DC01ED91FC910284F385E02DFE
:102000000995092E000CAA0BBB0B6C017D01C82899
:10201000D928EA28FB28C701B601FF90EF90DF908E
:10202000CF90BF90AF909F908F9008958091DB03E9
:102030008F3F21F482E591E00E94D60060E080911C
:10204000D8030E9477018F2D0E948B0480E00E94AC
:102050008B0490E0B0E0A0E0CC24D82EE92EFA2E3C
:1020600080E00E948B04C82AFE2CED2CDC2CCC24B2
:1020700080E00E948B04C82A61E08091D8030E940E
:102080007701C9CF8F929F92AF92BF92CF92DF928A
:10209000EF92FF920F931F938AEF0E94980F6115A2
:1020A000710520E88207910509F47DC00091DC03E9
:1020B0001091DD0330E020E0C72ED82EE92EFF245A
:1020C000E7FCFA94C01AD10AE20AF30A57E09595A0
:1020D0008795779567955A95D1F7000F111F221FA5
:1020E000331F4B015C01801A910AA20AB30AA501B1
:1020F0009401A091DE03B091DF030E941A204B01EE
:102100005C01FBE0B594A79497948794FA95D1F776
:10211000A7019601C701B6010E94E51F9B01AC0112
:10212000ACE05595479537952795AA95D1F7A0919D
:10213000E003B091E1030E941A209B01AC01BEE0D4
:102140005595479537952795BA95D1F7280D391D9F
:102150004A1D5B1D2093D4033093D5034093D603CF
:102160005093D703A5E0B0E00E940F2060587F4F46
:102170008F4F9F4F672F782F892F992787FD9A952B
:102180000E94F01C20E030E048EC52E40E94401C29
:102190001F910F91FF90EF90DF90CF90BF90AF9085
:1021A0009F908F90089560E070E080EC9FE7F0CF03
:1021B000CF93C82F8091D8038F3FA9F58091CB038F
:1021C0009091CC032091CF0331E0309318022093FB
:1021D00017021092160210921502DC01ED91FC918B
:1021E0000190F081E02D6C2F09958091CB039091A7
:1021F000CC030E94F10241E06091CF038091CB03B8
:102200009091CC030E94DF0E8091CB039091CC0380
:10221000DC01ED91FC910284F385E02D0995C82F36
:102220008C2FCF9108958091DB038F3F21F482E5BD
:1022300091E00E94D60060E08091D8030E9477016F
:102240008C2F0E948B0480E00E948B04C82F61E0D9
:102250008091D8030E947701E3CFCF93DF938091E1
:10226000D8038F3F09F05BC0109214021092130242
:1022700010921602109215021092120281E08093C1
:1022800011021092100261E082E10E94770161E088
:1022900083E10E9477018091B9008E7F8093B9001D
:1022A0008091B9008D7F8093B90088E48093B80055
:1022B00085E48093BC0089ED90E090930F028093B9
:1022C0000E028AED90E090930D0280930C0280ED57
:1022D0000E94D81090E0B0E0A0E08093D0039093EB
:1022E000D103A093D203B093D30380369105A10507
:1022F000B10509F01AC166EB80EE0E94EB046CE2B6
:1023000071E080E090E00E94FB0183EF0E94D81012
:1023100080FF22C064E670E080E090E0F4CF61E0EE
:102320000E94770161E08091D8030E94A50180910D
:10233000DB038F3F19F40E942404C9CF61E00E949F
:10234000A50161E08091D9030E94A50160E0809120
:10235000DA030E94A501BBCF88E80E94920F9093F8
:10236000DD038093DC038AE80E94920F9093DF03E1
:102370008093DE038CE80E94920F9093E103809398
:10238000E0038EE80E94920F9093E3038093E203B0
:1023900080E90E94920F9093E5038093E40382E921
:1023A0000E94920F9093E7038093E60384E90E94D2
:1023B000920F9093E9038093E80386E90E94920FBD
:1023C0009093EB038093EA0388E90E94920F909325
:1023D000ED038093EC038AE90E94920F9093EF0340
:1023E0008093EE038CE90E94920F9093F103809307
:1023F000F0038EE90E94920F9093F3038093F2030F
:1024000081EA0E94D8108093F40381EE0E94920F1B
:102410009093F6038093F50383EE0E94D810809387
:10242000F70384EE0E94D810C82F85EE0E94D810C2
:1024300090E1C99F900111248F70282B3093F903EC
:102440002093F80386EE0E94D810C82F85EE0E94D4
:10245000D81090E1C99FE001112490E024E0959507
:1024600087952A95E1F78C2B9D2B9093FB03809306
:10247000FA0387EE0E94D8108093FC038DEE8093C0
:10248000FE038091FF038F71806A8093FF03809128
:10249000FD03807C8093FD0360E084EF0E94EB04E9
:1024A0006091FF0362956695677082EF0E94EB046E
:1024B0008091FD03682F677090E2699FB00111243D
:1024C000282F269526952695277094E0299F900120
:1024D0001124622B87FB882780F9682B85EF0E94E7
:1024E000EB048091FE03682F677090E2699FB00152
:1024F0001124282F269526952695277094E0299F4C
:1025000090011124622B8295869586958370682BA5
:1025100084EF0E94EB0464E670E080E090E00E94AB
:10252000FB0181E0DF91CF91089580E0FBCF0F9315
:102530001F93CF93DF930091080310910903D0E01C
:10254000C0E082E00E36180769F160F188E0EEE63F
:10255000F2E0ACEEB1E001900D928A95E1F7C09106
:102560007602D0917702AE01C931D10510F048E171
:1025700050E068E772E084EF91E00E947D210C1B3F
:102580001D0B0A50110910930903009308034AE92F
:1025900050E04C1B5D0BBE0168587D4F8EE692E00B
:1025A0000E948621CE01DF91CF911F910F91089556
:1025B0001F920F920FB60F9211242F933F938F9378
:1025C0009F93AF93BF938091C6019091C701A09153
:1025D000C801B091C9013091C50123E0230F2D3707
:1025E00058F50196A11DB11D2093C5018093C60128
:1025F0009093C701A093C801B093C9018091CA010B
:102600009091CB01A091CC01B091CD010196A11D7B
:10261000B11D8093CA019093CB01A093CC01B093DC
:10262000CD01BF91AF919F918F913F912F910F90CD
:102630000FBE0F901F90189526E8230F0296A11D3C
:10264000B11DD2CF1F920F920FB60F9211242F936C
:102650003F934F935F936F937F938F939F93AF932A
:10266000BF93EF93FF938091B900887F803609F480
:102670004AC0F0F5883209F4A7C018F5803109F492
:102680009BC0B8F4882309F4F9C0883009F494C0D9
:10269000FF91EF91BF91AF919F918F917F916F913A
:1026A0005F914F913F912F910F900FBE0F901F9010
:1026B0001895883109F488C0803251F78093A101C0
:1026C00014C0803409F49DC040F48033B9F38833DA
:1026D000F9F68093A10185ECB0C0803509F485C07E
:1026E000883509F496C0883499F60E943A02D0CF12
:1026F000883909F48CC038F5883729F050F48836C9
:1027000011F0803729F683E0809312021092A00125
:1027100057C0883809F47BC0803919F0803809F037
:10272000B7CF8091A001803208F071C0E091A00184
:1027300081E08E0F8093A0018091BB00F0E0E05813
:10274000FE4F80833DC0803B39F0E0F4803A09F4CD
:1027500079C0883A09F09CCF84E0809312021092ED
:102760007F0110927E01E0910E02F0910F02099517
:1027700080917E0181110FC081E080937E011092D3
:102780005E0109C0803C09F4A6CF883C09F4A3CFC0
:10279000883B09F07DCFE0917F0181E08E0F80932F
:1027A0007F01F0E0E25AFE4F80818093BB00909160
:1027B0007F0180917E0129C08091C4018093BB007C
:1027C00085EC8093BC0064CF9091C3018091C201DD
:1027D000981758F5E091C30181E08E0F8093C301F3
:1027E000F0E0EE55FE4F8081E9CFE091C30181E03A
:1027F0008E0F8093C3018091BB00F0E0EE55FE4F39
:1028000080839091C3018091C2019817C8F285E836
:10281000D8CFE091C30181E08E0F8093C3018091F6
:10282000BB00F0E0EE55FE4F8083809111028111D4
:102830005CCF81E08093100284EA8093BC00109208
:10284000120226CF85EC8093BC0010921202809178
:10285000A001803230F4E091A001F0E0E058FE4F9A
:1028600010826091A00170E0E0910C02F0910D02E5
:1028700080E891E009951092A0010ACF1092A10181
:1028800034CF1F920F920FB60F9211248F93809125
:102890001D018F5F80931D018F910F900FBE0F90D0
:1028A0001F901895EDE2F2E01382128288EE93E019
:1028B000A0E0B0E084839583A683B7838DE091E0A8
:1028C0009183808380E090E0A0E8BFE380930004E0
:1028D00090930104A0930204B0930304EBECF3E0A3
:1028E0008FEF858786878787808BE3ECF3E0138201
:1028F000128280910001909101019C012F5F3F4F56
:102900003093010120930001958384831682EBEAC2
:10291000F3E08AE090E09183808389E090E0938304
:102920008283168280E28783108685E0868785E031
:1029300090E0A0E0B0E0848B958BA68BB78B1186DE
:10294000A9E3B2E0D096FC93EE939F978EE692E0D7
:10295000909309038093080386E193E09093150315
:10296000809314038AE093E098969C938E939797B4
:102970009B961D921D921D921C929E979A961C9258
:102980009A9799961C9299971C920895CF93DF93EA
:10299000CDB7DEB76F970FB6F894DEBF0FBECDBFD1
:1029A000789484B5826084BD84B5816084BD85B52A
:1029B000826085BD85B5816085BD80916E00816036
:1029C00080936E00109281008091810082608093DC
:1029D00081008091810081608093810080918000DE
:1029E0008160809380008091B10084608093B10009
:1029F0008091B00081608093B00080917A00846003
:102A000080937A0080917A00826080937A0080912E
:102A10007A00816080937A0080917A008068809348
:102A20007A001092C10064EF71E080E090E00E94B3
:102A3000FB0161E087E00E94A50161E087E00E9460
:102A4000770109E112E019861886888599850E9428
:102A5000811BD8018D938D01E885F9853196F98721
:102A6000E887749791F780912C028330C1F183E05D
:102A700080932C0280E69AEEA0E0B0E080931902E9
:102A800090931A02A0931B02B0931C028AE090E07C
:102A900090931E0280931D029093200280931F0248
:102AA000109222021092210284E690E09093240278
:102AB00080932302109226021092250282E090E079
:102AC00090932802809327028AE58093290281E46B
:102AD00090E090932B0280932A020E94E2060E94CB
:102AE00024048091AB039091AC032091AD0330910D
:102AF000AE038217930719F061E00E94A50180914F
:102B0000AD039091AE032091AB033091AC03281735
:102B1000390719F061E00E94A5010E94240460E0D9
:102B20008BEA93E00E945A0461E08BEA93E00E94F2
:102B3000660465E070E080E090E00E94FB014CE0FC
:102B400060E08BEA93E00E944F054FE564E08BEA7A
:102B500093E00E944F0582E090E00E94B405882334
:102B600019F081E08093B10366E08BEA93E00E9464
:102B7000920590E080E00E94B4058BEA93E00E9409
:102B8000810480E50E94840483E70E9484048BEA28
:102B900093E00E947E0440E06DE18BEA93E00E94A6
:102BA0004F0540E06CE18BEA93E00E944F051092E4
:102BB000B30340E767E08BEA93E00E944F054CE4E3
:102BC00065E08BEA93E00E944F0562EE8BEA93E0AA
:102BD0000E9439058BEA93E00E944C058BEA93E052
:102BE0000E94FB0560E08BEA93E00E949205482F6B
:102BF0004E7F60E08BEA93E00E944F0587E7809369
:102C0000CF038DE292E09093CC038093CB030E949C
:102C10002D11811105C086E78093CF030E942D11ED
:102C20006091270270912802809129020E94690810
:102C300082E090E00E94B4050E94A80568EE73E06F
:102C400080E090E00E94FB0160E087E00E94770155
:102C50006091270270912802809129020E946908E0
:102C600082E090E00E94B4050E94A80568EE73E03F
:102C700080E090E00E94FB0160E087E00E94770125
:102C80001092E3011092E2011092E4011092E5012A
:102C90001092E6011092E7016AE070E080E090E0B7
:102CA0000E94FB010E941F016B017C0160912502C3
:102CB00070912602072E000C880B990B0E94F01CC5
:102CC00020E030E048EC52E40E94401CA70196014D
:102CD0000E94CF1B6B017C01609123027091240242
:102CE00090E080E00E94EE1C9B01AC01C701B601A0
:102CF0000E94F31D20E030E048EC52E40E94401CAA
:102D00006093E8017093E9018093EA019093EB01ED
:102D10000E941F0120E030E040E85FE30E943B1C7E
:102D2000181674F08091E4019091E501A091E601FC
:102D3000B091E70181389E4EA643B10508F482C4E4
:102D40008091FE03982F907C903421F5682F677056
:102D500020E2629FB0011124282F26952695269502
:102D6000277044E0249F90011124622B8295869560
:102D700086958370682B84EF0E94EB0483EF0E949A
:102D8000D81083FF07C061E070E080E090E00E940F
:102D9000FB01F4CF60E273E080E090E00E948303E7
:102DA0006AE070E080E090E00E94FB010E94421027
:102DB0006093DE017093DF018093E0019093E10165
:102DC0000E94421023E333E948E853E40E94CF1BFA
:102DD0009B01AC016BE774E18EE19FE30E94401C14
:102DE00020E030E040E85FE30E94CF1B28E539E3B4
:102DF00048EA50E40E94601E6A8F7B8F8C8F9D8F03
:102E00000E94421087EF0E94980F688779878A870F
:102E10009B87611571058048910509F4B6C28091C0
:102E2000D4039091D503A091D603B091D7036C0140
:102E30007D01FF0CCC08DC2C76019C01AD016C2DD2
:102E40007C2D8C2D9C2D345F414051096109710905
:102E5000810991092F8F3E8F49835A836B837C832D
:102E60008D839E8359016A017B018C010E9422207F
:102E70002F833B8B4C8B5D8B6E8B7F8B888F998FD9
:102E80003091E5032091E403932F990F990B492F7B
:102E9000592F692F792F892F0E9422200CE00E9440
:102EA0001A2119012A013B014C013091E7032091BD
:102EB000E603932F990F990BAF80BB88CC88DD88F0
:102EC000EE88FF88088D198D492F592F692F792F8A
:102ED000892F0E94222008E00E94332151016201C3
:102EE000730184010E94502170588F4F9F4F209092
:102EF000E2033090E3035101C12CD12CE12CF12CE1
:102F000000E010E00E94222001E20E9433212C8781
:102F10003D874E875F87688B798B8A8B692EA0E00F
:102F20000E94622109F436C23091ED032091EC0336
:102F3000932F990F990BAF80BB88CC88DD88EE88E2
:102F4000FF88088D198D492F592F692F792F892FC7
:102F50000E94222019012A016F83772E4C013091A3
:102F6000EB032091EA03932F990F990BAF8CBE8C42
:102F7000C980DA80EB80FC800D811E81492F592F9A
:102F8000692F792F892F0E94222001E10E941A21A6
:102F900051016201EF80F72C84010E9450215901F8
:102FA0006A017B01782E192F88859985AA85BB85B2
:102FB00034E0B595A795979587953A95D1F720E098
:102FC00030E040E150E0281B390B4A0B5B0BDA0183
:102FD000C90119012A01550C2208322C21019C013A
:102FE000AD01622D722D822D922D0FE10E941A21CA
:102FF00049014A835983B62FA72FF82FE92F309123
:10300000E9032091E803932F990F990B492F592F2A
:10301000692F792F892F03E20E941A21072D0E9420
:10302000502159016A017B018C0194014A81598127
:103030006B2F7A2F8F2F9E2F0E945921E5E3AE2E02
:10304000FCE0BF2EC12CD12CE12CF12C00E010E0D3
:103050000E942220AC84BD84CE84DF84E888F98875
:103060000A89162D0E947C202F83232E49835A83A0
:103070006B837C838D839E830DE00E943321322EEF
:10308000432E542E652E762E872E982E98873091BB
:10309000F3032091F203932F990F990BA32CB42CD7
:1030A000C52CD62CE72CF82C092D1885492F592F23
:1030B000692F792F892F0E9422200E94222009E166
:1030C0000E943321AF80B22CC980DA80EB80FC8073
:1030D0000D811E810E945021322E432E542E652ECA
:1030E000762E872E982E98873091F1032091F00349
:1030F000932F990F990B492F592F692F792F892FCA
:103100000E94222003E10E94332159016A017B01C0
:103110008C01232D342D452D562D672D782D892D8D
:1031200098850E94502108E00E94332159016A01CC
:103130007B01E82F192F3091EF032091EE03932F9D
:10314000990F990B492F592F692F792F892F04E057
:103150000E941A210E2F0E9450210E94E81C20E09C
:1031600030E040E85BE30E94F31D9B01AC016A8DF7
:103170007B8D8C8D9D8D0E94F31D20E030E048EC0E
:1031800052E40E94401C6093DA017093DB0180934B
:10319000DC019093DD010E9442108DEF0E94250F0B
:1031A000B0E0A0E0811530E89307A105B10509F46E
:1031B000F5C04090D4035090D5036090D603709032
:1031C000D7034CE2541A41E0640A71086C017D0196
:1031D0003EE0CC0CDD1CEE1CFF1C3A95D1F7209193
:1031E000F8033091F903032E000C440B550B64E1F6
:1031F000220F331F441F551F6A95D1F7C21AD30AF5
:10320000E40AF50AA091FA03B091FB03A30192012D
:103210000E941A20C61AD70AE80AF90A50E4D50E05
:10322000E11CF11C7FE0F594E794D794C7947A955C
:10323000D1F7A091F703B0E0A3010E940F204B014A
:103240005C01EBE0B594A79497948794EA95D1F745
:1032500080E8980EA11CB11CA091FC030A2E000C62
:10326000BB0B0E941A20FAE0959587957795679594
:10327000FA95D1F7A50194010E94E51F9B01AC01CD
:10328000AAE05595479537952795AA95D1F7405EC1
:103290005F4FA091F503B091F6030E941A20705E73
:1032A0008F4F9F4FBEE09595879577956795BA9517
:1032B000D1F7A70196010E94E51F6B017C011FE079
:1032C00095958795779567951A95D1F79B01AC01F0
:1032D0000E94E51F9B01AC0107E055954795379586
:1032E00027950A95D1F7A091F403B0E00E940F2032
:1032F00024E095958795779567952A95D1F7C61A15
:10330000D70AE80AF90AF7FE03C0C12CD12C7601CE
:10331000C701B601613071058105A9E19A0724F062
:1033200060E070E080E099E12CE0959587957795D5
:1033300067952A95D1F70E94F01C20E030E040E824
:103340005AE30E94F31D6B017C01C092D601D0921A
:10335000D701E092D801F092D9018091E2019091D9
:10336000E301892B09F059C10E94F10C8111FCCFB6
:1033700080910803909109038E569240B1F0A8F015
:103380000E9497120E94F10CF3CF20E030E040EC55
:103390005FE7EDCE20E030E0A901E9CEC12CD12CD1
:1033A00080ECE82E8FE7F82ED0CF62EE8BEA93E028
:1033B0000E9439058BEA93E00E94FB058BEA93E0BB
:1033C0000E9449066AE070E080E090E00E94FB0104
:1033D0001092F5011092F401E1E0E093F801809180
:1033E000DE019091DF01A091E001B091E1018093B5
:1033F000FC019093FD01A093FE01B093FF01F5E65F
:10340000F093F9018091E8019091E901A091EA011E
:10341000B091EB018093000290930102A09302020D
:10342000B093030222E02093FA018091DA01909197
:10343000DB01A091DC01B091DD0180930402909347
:103440000502A0930602B093070233E03093FB011C
:10345000C0920802D0920902E0920A02F0920B0296
:1034600043E34093C9031092D5011092D401109206
:10347000D3011092D20120911D0230911E02809141
:10348000D2019091D3018217930708F0C6C00E9421
:10349000F10C80910803909109038E56924009F037
:1034A00008F4A1C080911D0290911E029093D30157
:1034B0008093D20120911F02309120028091D4018B
:1034C0009091D5018217930708F09DC08091080361
:1034D000909109038E56924059F150F10E94971233
:1034E0008091F201843371F580911F029091200246
:1034F0009093D5018093D4018091F60180FF08C09C
:1035000080911F02909120029093D5018093D40165
:103510008091F2018093C9030E948B0E0E94F10CEE
:1035200062E370E080E090E00E94FB010E94F10CF9
:103530008091D4019091D50101969093D50180930B
:10354000D401B8CF4091FC015091FD016091FE0182
:103550007091FF018091F8010E9403076093FC01C4
:103560007093FD018093FE019093FF014091000252
:103570005091010260910202709103028091F90161
:103580000E9403076093000270930102809302027D
:10359000909303024091040250910502609106024B
:1035A000709107028091FA010E9403076093040260
:1035B00070930502809306029093070240910802DF
:1035C0005091090260910A0270910B028091FB01F7
:1035D0000E940307609308027093090280930A0215
:1035E00090930B0289CF0E948B0E62E370E080E023
:1035F00090E00E94FB011092E4011092E50110920C
:10360000E6011092E7018091D2019091D3010196D9
:103610009093D3018093D2012ECF8BEA93E00E9446
:10362000140660E08BEA93E00E945A0460E08BEAA3
:1036300093E00E949205482F4D7F60E08BEA93E073
:103640000E944F050091CE011091CF012091D00131
:103650003091D1016091190270911A0280911B0280
:1036600090911C02011511052105310509F446C090
:10367000600F711F821F931F0E9483031092CE015F
:103680001092CF011092D0011092D1018091E401EB
:103690009091E501A091E601B091E70140911902F6
:1036A00050911A0260911B0270911C02840F951FA9
:1036B000A61FB71F8093E4019093E501A093E60154
:1036C000B093E7018091E2019091E301019690931C
:1036D000E3018093E2012091210230912202281718
:1036E000390720F41092E3011092E201E0E0F0E0EB
:1036F000EF2B09F4D1CA0E940000CECA0E948303B6
:10370000C5CFF999FECF92BD81BDF89A992780B5B2
:103710000895262FF999FECF1FBA92BD81BD20BD15
:103720000FB6F894FA9AF99A0FBE019608952F925F
:103730003F924F925F926F927F928F929F92AF9241
:10374000BF92CF92DF92EF92FF920F931F93CF938E
:10375000DF93CDB7DEB7CA1BDB0B0FB6F894DEBF25
:103760000FBECDBF09942A88398848885F846E844B
:103770007D848C849B84AA84B984C884DF80EE8095
:10378000FD800C811B81AA81B981CE0FD11D0FB69E
:10379000F894DEBF0FBECDBFED0108955058BB2792
:1037A000AA270E94E61B0C94B41D0E94A61D38F0A7
:1037B0000E94AD1D20F039F49F3F19F426F40C94BB
:1037C000931D0EF4E095E7FB0C948D1DE92F0E94EC
:1037D000C51D58F3BA17620773078407950720F0D1
:1037E00079F4A6F50C94E71D0EF4E0950B2EBA2F94
:1037F000A02D0B01B90190010C01CA01A0011124F7
:10380000FF27591B99F0593F50F4503E68F11A16A2
:10381000F040A22F232F342F4427585FF3CF469533
:1038200037952795A795F0405395C9F77EF41F1655
:10383000BA0B620B730B840BBAF09150A1F0FF0F1F
:10384000BB1F661F771F881FC2F70EC0BA0F621F0B
:10385000731F841F48F4879577956795B795F795FB
:103860009E3F08F0B0CF9395880F08F09927EE0F90
:103870009795879508950E94691D08F481E0089541
:103880000E94541C0C94B41D0E94AD1D58F00E945F
:10389000A61D40F029F45F3F29F00C948D1D5111B5
:1038A0000C94E81D0C94931D0E94C51D68F3992388
:1038B000B1F3552391F3951B550BBB27AA2762172C
:1038C0007307840738F09F5F5F4F220F331F441F39
:1038D000AA1FA9F335D00E2E3AF0E0E832D091506D
:1038E0005040E695001CCAF72BD0FE2F29D0660F5A
:1038F000771F881FBB1F261737074807AB07B0E89D
:1039000009F0BB0B802DBF01FF2793585F4F3AF0A2
:103910009E3F510578F00C948D1D0C94E81D5F3F7F
:10392000E4F3983ED4F3869577956795B795F79528
:103930009F5FC9F7880F911D9695879597F9089510
:10394000E1E0660F771F881FBB1F621773078407AC
:10395000BA0720F0621B730B840BBA0BEE1F88F7BB
:10396000E09508950E94B91C6894B1110C94E81D6B
:1039700008950E94CD1D88F09F5798F0B92F992780
:10398000B751B0F0E1F0660F771F881F991F1AF04A
:10399000BA95C9F714C0B13091F00E94E71DB1E0AB
:1039A00008950C94E71D672F782F8827B85F39F0AA
:1039B000B93FCCF3869577956795B395D9F73EF4E3
:1039C00090958095709561957F4F8F4F9F4F08958B
:1039D00097FB16F40E94961D0C942C1DE89409C0C8
:1039E00097FB3EF490958095709561957F4F8F4F32
:1039F0009F4F9923A9F0F92F96E9BB279395F69548
:103A0000879577956795B795F111F8CFFAF4BB0FC5
:103A100011F460FF1BC06F5F7F4F8F4F9F4F16C029
:103A2000882311F096E911C0772321F09EE8872FB3
:103A3000762F05C0662371F096E8862F70E060E06F
:103A40002AF09A95660F771F881FDAF7880F9695E8
:103A5000879597F90895E894F92F96EBFF2381F065
:103A6000121613061406440B9395F69587957795D1
:103A7000679557954040FF23B9F71BC099270895D4
:103A8000882351F49850D2F7872B762F652F542F27
:103A9000432F322F20E0B1F3121613061406440B05
:103AA00088233AF09A95440F551F661F771F881F89
:103AB000CAF755234AF4440F551F11F460FF04C0A0
:103AC0006F5F7F4F8F4F9F4F880F9695879597F920
:103AD0000895990F0008550FAA0BE0E8FEEF16169F
:103AE0001706E807F907C0F012161306E407F507F2
:103AF00098F0621B730B840B950B39F40A2661F066
:103B0000232B242B252B21F408950A2609F4A14008
:103B1000A6958FEF811D811D089597F99F6780E815
:103B200070E060E008959FEF80EC08959095809597
:103B30007095609550954095309521953F4F4F4F2A
:103B40005F4F6F4F7F4F8F4F9F4F089500240A9410
:103B50001616170618060906089500240A94121668
:103B60001306140605060895092E0394000C11F49B
:103B7000882352F0BB0F40F4BF2B11F460FF04C048
:103B80006F5F7F4F8F4F9F4F089557FD9058440FA1
:103B9000551F59F05F3F71F04795880F97FB991FAC
:103BA00061F09F3F79F08795089512161306140669
:103BB000551FF2CF4695F1DF08C0161617061806F6
:103BC000991FF1CF86957105610508940895E894D1
:103BD000BB2766277727CB0197F908950E94691DB7
:103BE00008F48FEF08950E94061E0C94B41D0E94E5
:103BF000A61D38F00E94AD1D20F0952311F00C9405
:103C00008D1D0C94931D11240C94E81D0E94C51D5C
:103C100070F3959FC1F3950F50E0551F629FF0011F
:103C2000729FBB27F00DB11D639FAA27F00DB11D38
:103C3000AA1F649F6627B00DA11D661F829F2227C1
:103C4000B00DA11D621F739FB00DA11D621F839F48
:103C5000A00D611D221F749F3327A00D611D231F1E
:103C6000849F600D211D822F762F6A2F11249F576C
:103C700050409AF0F1F088234AF0EE0FFF1FBB1F6F
:103C8000661F771F881F91505040A9F79E3F51052E
:103C900080F00C948D1D0C94E81D5F3FE4F3983E7A
:103CA000D4F3869577956795B795F795E7959F5FD8
:103CB000C1F7FE2B880F911D9695879597F908956A
:103CC000FA01EE0FFF1F309621053105A1F16115B4
:103CD000710561F48038BFE39B0749F1689490381F
:103CE000810561F08038BFEF9B0741F099234AF5C9
:103CF000FF3FE1053105210519F1E8940894E795A6
:103D0000D901AA2329F4AB2FBE2FF85FD0F310C03E
:103D1000FF5F70F4A695E0F7F73950F019F0FF3A1D
:103D200038F49F779F930DD00F9007FC905808951B
:103D300046F00C94931D60E070E080E89FE30895E6
:103D40004FE79F775F934F933F932F930E945B1FA3
:103D50002F913F914F915F910E94F31D0C94B81EDB
:103D600029F416F00C948D1D0C94E71D0C94931DF2
:103D70000E94CD1DA8F39638A0F707F80F92E8949B
:103D80002BE33AEA48EB5FE70E94091E0F920F927D
:103D90000F924DB75EB70F920E94A31FE8E6F0E0C6
:103DA0000E94EA1E4F915F91EF91FF91E595EE1F02
:103DB000FF1F49F0FE57E0684427EE0F441FFA95B5
:103DC000E1F74195550B0E941D1F0F9007FE0C94C3
:103DD000111F0895DF93CF931F930F93FF92EF92DC
:103DE000DF927B018C01689406C0DA2EEF010E94FD
:103DF000061EFE01E894A5912591359145915591B6
:103E0000A6F3EF010E94E61BFE019701A801DA94D8
:103E100069F7DF90EF90FF900F911F91CF91DF91A5
:103E200008959B01AC0160E070E080E89FE30C9492
:103E3000401C0C948D1D0C94D71F0E94CD1DD8F3EF
:103E40009923C9F3940F511DA3F39150504094F05E
:103E500059F0882332F0660F771F881F9150504029
:103E6000C1F79E3F51052CF7880F911D96958795B8
:103E700097F908955F3FACF0983E9CF0BB2786957C
:103E800077956795B79508F4B1609395C1F7BB0F27
:103E900058F711F460FFE8CF6F5F7F4F8F4F9F4F50
:103EA000E3CF0C94E81D16F00C94D71F0C94931DCF
:103EB00068940C948D1D0E94CD1DA8F39923C1F325
:103EC000AEF3DF93CF931F930F93FF92C92FDD279C
:103ED00088232AF02197660F771F881FDAF720E0E2
:103EE00030E040E85FEB9FE3883920F0803E38F017
:103EF00021968F770E94CF1BE0E9F0E004C00E947A
:103F0000CF1BEDEBF0E00E94EA1E8B01BE01EC013D
:103F1000FB2E6F5771097595771F880B990B0E94BF
:103F2000F01C28E132E741E35FE30E94061EAF2D5B
:103F30009801AE01FF900F911F91CF91DF910E94E8
:103F4000E61B0C94B41DFA01DC01AA0FBB1F9B01F8
:103F5000AC01BF5728F4222733274427507820C0CC
:103F6000B75190F4AB2F0024469537952795011C47
:103F7000A395D2F3002071F0220F331F441FB39595
:103F8000DAF30ED00C94CE1B61307105A0E88A07DD
:103F9000B94630F49B01AC016627772788279078D3
:103FA000309621F0208331834283538308959F3FCD
:103FB00031F0915020F4879577956795B795880FE4
:103FC000911D9695879597F90895DB018F939F939F
:103FD0000E940F20BF91AF91A29F800D911DA39FC2
:103FE000900DB29F900D11240895AA1BBB1B51E1A7
:103FF00007C0AA1FBB1FA617B70710F0A61BB70B59
:10400000881F991F5A95A9F780959095BC01CD01FD
:104010000895EE0FFF1F0590F491E02D09940E9482
:104020006E21A59F900DB49F900DA49F800D911DB2
:1040300011240895B7FF0C940F200E940F20821BBB
:10404000930B0895DF93CF931F930F939A9DF02DB9
:10405000219FF00D8B9DF00D8A9DE02DF10D039FAA
:10406000F00D029FE00DF11D4E9DE00DF11D5E9DD6
:10407000F00D4F9DF00D7F936F93BF92AF925F93C2
:104080004F93D5010E946E218B01AC01D7010E9494
:104090006E21EB01E80FF91FD6010E9471202F91CC
:1040A0003F91D6010E946E21C60FD71FE81FF91F4E
:1040B000AF91BF910E9471202F913F910E946E217C
:1040C000C60FD71FE81FF91FD6010E946E21E60F09
:1040D000F71F9801BE01CF010F911F91CF91DF9182
:1040E00008950E946E21460F571FC81FD91F08F45C
:1040F00031960895689401C0E894F92FF12B12F0DD
:104100000C94AE20A0E0B0E0E8E8F0E20C949D1B37
:10411000092E059422F40E940A21112392F4F0E85A
:104120000F26FFEFE094F09400951095B094C094A2
:10413000D094A194BF0ACF0ADF0AEF0AFF0A0F0B3F
:104140001F0B0E94B92007FC0E940A21CDB7DEB7E1
:10415000ECE00C94B91B689401C0E8948F929F9294
:10416000CF93DF930E94B920DF91CF919F908F90E2
:10417000089588249924F401E401B0E49F93AA27C8
:104180009A158B049C04ED05FE05CF05D007A10709
:1041900098F4AD2FDC2FCF2FFE2FE92D982C892EF0
:1041A000982F872F762F652F542F432F322F2227BA
:1041B000B85031F7BF9127C01B2EBF91BB27220FEC
:1041C000331F441F551F661F771F881F991F881CA8
:1041D000991CEE1FFF1FCC1FDD1FAA1FBB1F8A14D7
:1041E0009B04EC05FD05CE05DF05A007B10748F0EF
:1041F0008A189B08EC09FD09CE09DF09A00BB10B59
:1042000021601A94E1F62EF49401AF01BE01CD01B4
:10421000000C089560957095809590953095409527
:10422000509521953F4F4F4F5F4F6F4F7F4F8F4FAF
:104230009F4F0895002E083090F0982F872F762FEB
:10424000652F542F432F322F22270850F4CF220FEF
:10425000331F441F551F661F771F881F991F0A951C
:10426000B2F7002D089597FD1094002E083098F0B5
:104270000850232F342F452F562F672F782F892F43
:10428000912DF4CF159497958795779567955795C8
:104290004795379527950A95AAF71124002D08957B
:1042A0002A0D3B1D4C1D5D1D6E1D7F1D801F911F26
:1042B00008952A193B094C095D096E097F09800B95
:1042C000910B08950024A7FD00942A17300540059E
:1042D000500560057005800590050895A29FB00106
:1042E000B39FC001A39F700D811D1124911DB29F2A
:1042F000700D811D1124911D0895FB01DC0102C088
:1043000001900D9241505040D8F7089568177907F1
:1043100068F4FB01DC01E40FF51FA40FB51F02C018
:1043200002900E9241505040D8F708950C947D2190
:04433000F894FFCF2F
:104334000100C33C33CE3EE3EC00000000C2029512
:0C434400024E036B028E027B026C020032
:00000001FF
